{
  "contractName": "FundWallet",
  "abi": [
    {
      "constant": true,
      "inputs": [],
      "name": "raisedBalance",
      "outputs": [
        {
          "name": "",
          "type": "uint256"
        }
      ],
      "payable": false,
      "stateMutability": "view",
      "type": "function"
    },
    {
      "constant": true,
      "inputs": [
        {
          "name": "",
          "type": "address"
        }
      ],
      "name": "isContributor",
      "outputs": [
        {
          "name": "",
          "type": "bool"
        }
      ],
      "payable": false,
      "stateMutability": "view",
      "type": "function"
    },
    {
      "constant": true,
      "inputs": [
        {
          "name": "",
          "type": "address"
        }
      ],
      "name": "stake",
      "outputs": [
        {
          "name": "",
          "type": "uint256"
        }
      ],
      "payable": false,
      "stateMutability": "view",
      "type": "function"
    },
    {
      "constant": true,
      "inputs": [
        {
          "name": "",
          "type": "uint256"
        }
      ],
      "name": "contributors",
      "outputs": [
        {
          "name": "",
          "type": "address"
        }
      ],
      "payable": false,
      "stateMutability": "view",
      "type": "function"
    },
    {
      "constant": true,
      "inputs": [],
      "name": "adminP",
      "outputs": [
        {
          "name": "",
          "type": "uint256"
        }
      ],
      "payable": false,
      "stateMutability": "view",
      "type": "function"
    },
    {
      "constant": true,
      "inputs": [],
      "name": "raiseP",
      "outputs": [
        {
          "name": "",
          "type": "uint256"
        }
      ],
      "payable": false,
      "stateMutability": "view",
      "type": "function"
    },
    {
      "constant": true,
      "inputs": [],
      "name": "opperateP",
      "outputs": [
        {
          "name": "",
          "type": "uint256"
        }
      ],
      "payable": false,
      "stateMutability": "view",
      "type": "function"
    },
    {
      "constant": true,
      "inputs": [],
      "name": "liquidP",
      "outputs": [
        {
          "name": "",
          "type": "uint256"
        }
      ],
      "payable": false,
      "stateMutability": "view",
      "type": "function"
    },
    {
      "constant": true,
      "inputs": [],
      "name": "backupAdmin",
      "outputs": [
        {
          "name": "",
          "type": "address"
        }
      ],
      "payable": false,
      "stateMutability": "view",
      "type": "function"
    },
    {
      "constant": true,
      "inputs": [],
      "name": "adminStake",
      "outputs": [
        {
          "name": "",
          "type": "uint256"
        }
      ],
      "payable": false,
      "stateMutability": "view",
      "type": "function"
    },
    {
      "constant": true,
      "inputs": [],
      "name": "endBalanceLogged",
      "outputs": [
        {
          "name": "",
          "type": "bool"
        }
      ],
      "payable": false,
      "stateMutability": "view",
      "type": "function"
    },
    {
      "constant": true,
      "inputs": [
        {
          "name": "",
          "type": "address"
        }
      ],
      "name": "hasClaimed",
      "outputs": [
        {
          "name": "",
          "type": "bool"
        }
      ],
      "payable": false,
      "stateMutability": "view",
      "type": "function"
    },
    {
      "constant": true,
      "inputs": [],
      "name": "endBalance",
      "outputs": [
        {
          "name": "",
          "type": "uint256"
        }
      ],
      "payable": false,
      "stateMutability": "view",
      "type": "function"
    },
    {
      "constant": true,
      "inputs": [],
      "name": "adminCarry",
      "outputs": [
        {
          "name": "",
          "type": "uint256"
        }
      ],
      "payable": false,
      "stateMutability": "view",
      "type": "function"
    },
    {
      "constant": true,
      "inputs": [],
      "name": "start",
      "outputs": [
        {
          "name": "",
          "type": "uint256"
        }
      ],
      "payable": false,
      "stateMutability": "view",
      "type": "function"
    },
    {
      "constant": true,
      "inputs": [],
      "name": "reserve",
      "outputs": [
        {
          "name": "",
          "type": "address"
        }
      ],
      "payable": false,
      "stateMutability": "view",
      "type": "function"
    },
    {
      "constant": true,
      "inputs": [],
      "name": "timePeriodsSet",
      "outputs": [
        {
          "name": "",
          "type": "bool"
        }
      ],
      "payable": false,
      "stateMutability": "view",
      "type": "function"
    },
    {
      "constant": true,
      "inputs": [],
      "name": "adminStaked",
      "outputs": [
        {
          "name": "",
          "type": "bool"
        }
      ],
      "payable": false,
      "stateMutability": "view",
      "type": "function"
    },
    {
      "constant": true,
      "inputs": [],
      "name": "admin",
      "outputs": [
        {
          "name": "",
          "type": "address"
        }
      ],
      "payable": false,
      "stateMutability": "view",
      "type": "function"
    },
    {
      "inputs": [
        {
          "name": "_admin",
          "type": "address"
        },
        {
          "name": "_backupAdmin",
          "type": "address"
        }
      ],
      "payable": false,
      "stateMutability": "nonpayable",
      "type": "constructor"
    },
    {
      "payable": true,
      "stateMutability": "payable",
      "type": "fallback"
    },
    {
      "anonymous": false,
      "inputs": [
        {
          "indexed": false,
          "name": "_contributor",
          "type": "address"
        }
      ],
      "name": "ContributorAdded",
      "type": "event"
    },
    {
      "anonymous": false,
      "inputs": [
        {
          "indexed": false,
          "name": "_contributor",
          "type": "address"
        }
      ],
      "name": "ContributorRemoval",
      "type": "event"
    },
    {
      "anonymous": false,
      "inputs": [
        {
          "indexed": false,
          "name": "sender",
          "type": "address"
        },
        {
          "indexed": false,
          "name": "value",
          "type": "uint256"
        }
      ],
      "name": "ContributorDeposit",
      "type": "event"
    },
    {
      "anonymous": false,
      "inputs": [
        {
          "indexed": false,
          "name": "_contributor",
          "type": "address"
        },
        {
          "indexed": false,
          "name": "value",
          "type": "uint256"
        }
      ],
      "name": "ContributorDepositReturn",
      "type": "event"
    },
    {
      "anonymous": false,
      "inputs": [
        {
          "indexed": false,
          "name": "sender",
          "type": "address"
        },
        {
          "indexed": false,
          "name": "value",
          "type": "uint256"
        }
      ],
      "name": "AdminDeposit",
      "type": "event"
    },
    {
      "anonymous": false,
      "inputs": [
        {
          "indexed": false,
          "name": "sender",
          "type": "address"
        },
        {
          "indexed": false,
          "name": "value",
          "type": "uint256"
        }
      ],
      "name": "AdminDepositReturned",
      "type": "event"
    },
    {
      "anonymous": false,
      "inputs": [
        {
          "indexed": false,
          "name": "token",
          "type": "address"
        },
        {
          "indexed": false,
          "name": "amount",
          "type": "uint256"
        },
        {
          "indexed": false,
          "name": "sendTo",
          "type": "address"
        }
      ],
      "name": "TokenPulled",
      "type": "event"
    },
    {
      "anonymous": false,
      "inputs": [
        {
          "indexed": false,
          "name": "amount",
          "type": "uint256"
        },
        {
          "indexed": false,
          "name": "sendTo",
          "type": "address"
        }
      ],
      "name": "EtherPulled",
      "type": "event"
    },
    {
      "anonymous": false,
      "inputs": [
        {
          "indexed": false,
          "name": "token",
          "type": "address"
        },
        {
          "indexed": false,
          "name": "amount",
          "type": "uint256"
        },
        {
          "indexed": false,
          "name": "sendTo",
          "type": "address"
        }
      ],
      "name": "TokenWithdraw",
      "type": "event"
    },
    {
      "anonymous": false,
      "inputs": [
        {
          "indexed": false,
          "name": "amount",
          "type": "uint256"
        },
        {
          "indexed": false,
          "name": "sendTo",
          "type": "address"
        }
      ],
      "name": "EtherWithdraw",
      "type": "event"
    },
    {
      "constant": false,
      "inputs": [
        {
          "name": "_adminStake",
          "type": "uint256"
        },
        {
          "name": "_adminCarry",
          "type": "uint256"
        }
      ],
      "name": "setFundScheme",
      "outputs": [],
      "payable": false,
      "stateMutability": "nonpayable",
      "type": "function"
    },
    {
      "constant": false,
      "inputs": [
        {
          "name": "_adminP",
          "type": "uint256"
        },
        {
          "name": "_raiseP",
          "type": "uint256"
        },
        {
          "name": "_opperateP",
          "type": "uint256"
        },
        {
          "name": "_liquidP",
          "type": "uint256"
        }
      ],
      "name": "setTimePeriods",
      "outputs": [],
      "payable": false,
      "stateMutability": "nonpayable",
      "type": "function"
    },
    {
      "constant": false,
      "inputs": [
        {
          "name": "_reserve",
          "type": "address"
        }
      ],
      "name": "setReserve",
      "outputs": [],
      "payable": false,
      "stateMutability": "nonpayable",
      "type": "function"
    },
    {
      "constant": false,
      "inputs": [
        {
          "name": "_newAdmin",
          "type": "address"
        }
      ],
      "name": "changeAdmin",
      "outputs": [],
      "payable": false,
      "stateMutability": "nonpayable",
      "type": "function"
    },
    {
      "constant": false,
      "inputs": [
        {
          "name": "_contributor",
          "type": "address"
        }
      ],
      "name": "addContributor",
      "outputs": [],
      "payable": false,
      "stateMutability": "nonpayable",
      "type": "function"
    },
    {
      "constant": false,
      "inputs": [
        {
          "name": "_contributor",
          "type": "address"
        }
      ],
      "name": "removeContributor",
      "outputs": [],
      "payable": false,
      "stateMutability": "nonpayable",
      "type": "function"
    },
    {
      "constant": true,
      "inputs": [],
      "name": "getContributors",
      "outputs": [
        {
          "name": "",
          "type": "address[]"
        }
      ],
      "payable": false,
      "stateMutability": "view",
      "type": "function"
    },
    {
      "constant": false,
      "inputs": [],
      "name": "contributorDeposit",
      "outputs": [],
      "payable": true,
      "stateMutability": "payable",
      "type": "function"
    },
    {
      "constant": false,
      "inputs": [],
      "name": "contributorRefund",
      "outputs": [],
      "payable": false,
      "stateMutability": "nonpayable",
      "type": "function"
    },
    {
      "constant": false,
      "inputs": [],
      "name": "adminDeposit",
      "outputs": [],
      "payable": true,
      "stateMutability": "payable",
      "type": "function"
    },
    {
      "constant": false,
      "inputs": [],
      "name": "adminRefund",
      "outputs": [],
      "payable": false,
      "stateMutability": "nonpayable",
      "type": "function"
    },
    {
      "constant": false,
      "inputs": [
        {
          "name": "token",
          "type": "address"
        },
        {
          "name": "amount",
          "type": "uint256"
        },
        {
          "name": "sendTo",
          "type": "address"
        }
      ],
      "name": "withdrawToken",
      "outputs": [],
      "payable": false,
      "stateMutability": "nonpayable",
      "type": "function"
    },
    {
      "constant": false,
      "inputs": [
        {
          "name": "amount",
          "type": "uint256"
        },
        {
          "name": "sendTo",
          "type": "address"
        }
      ],
      "name": "withdrawEther",
      "outputs": [],
      "payable": false,
      "stateMutability": "nonpayable",
      "type": "function"
    },
    {
      "constant": false,
      "inputs": [],
      "name": "logEndBal",
      "outputs": [],
      "payable": false,
      "stateMutability": "nonpayable",
      "type": "function"
    },
    {
      "constant": false,
      "inputs": [],
      "name": "adminClaim",
      "outputs": [],
      "payable": false,
      "stateMutability": "nonpayable",
      "type": "function"
    },
    {
      "constant": false,
      "inputs": [],
      "name": "contributorClaim",
      "outputs": [],
      "payable": false,
      "stateMutability": "nonpayable",
      "type": "function"
    },
    {
      "constant": false,
      "inputs": [
        {
          "name": "token",
          "type": "address"
        },
        {
          "name": "amount",
          "type": "uint256"
        }
      ],
      "name": "pullToken",
      "outputs": [
        {
          "name": "",
          "type": "bool"
        }
      ],
      "payable": false,
      "stateMutability": "nonpayable",
      "type": "function"
    },
    {
      "constant": false,
      "inputs": [
        {
          "name": "amount",
          "type": "uint256"
        }
      ],
      "name": "pullEther",
      "outputs": [
        {
          "name": "",
          "type": "bool"
        }
      ],
      "payable": false,
      "stateMutability": "nonpayable",
      "type": "function"
    },
    {
      "constant": true,
      "inputs": [
        {
          "name": "token",
          "type": "address"
        }
      ],
      "name": "checkBalance",
      "outputs": [
        {
          "name": "",
          "type": "uint256"
        }
      ],
      "payable": false,
      "stateMutability": "view",
      "type": "function"
    }
  ],
  "bytecode": "0x6060604052341561000f57600080fd5b604051604080611b798339810160405280805191906020018051915050600160a060020a038216151561004157600080fd5b600160a060020a038116151561005657600080fd5b60008054600160a060020a03938416600160a060020a03199182161790915560018054929093169116179055611ae8806100916000396000f3006060604052600436106101be5763ffffffff60e060020a6000350416630ee180c581146101c05780631b044be7146101e55780631d0d35f5146101fe578063264762041461023157806328439961146102505780633b89a83a1461026f5780633cb5d100146102825780633ccdbb28146102b4578063426fe411146102dd57806344b563db146102e557806344c16ca8146102f8578063494115bb1461030b5780634ca9b2581461031e5780635306e4b31461033157806354e92f26146103535780635f515226146103665780635f7ee8e61461038557806361d0b72b146103985780636542ed29146103ab57806366aa9aff146103be578063700f9d03146103c657806372c03508146103d957806373b2e80e146103ec57806382ef8fa81461040b5780638f2839701461041e5780639cecc80a1461043d578063a1956e321461045c578063af157c191461046f578063b3f3ab5c146104d5578063b579184f146104f4578063b61ebda814610513578063be9a655514610526578063c783dc9e14610539578063cd3293de1461054f578063ce56c45414610562578063d6e56d6314610584578063e7a69a1a14610597578063f851a440146105aa575b005b34156101cb57600080fd5b6101d36105bd565b60405190815260200160405180910390f35b34156101f057600080fd5b6101be6004356024356105c3565b341561020957600080fd5b61021d600160a060020a036004351661061c565b604051901515815260200160405180910390f35b341561023c57600080fd5b6101d3600160a060020a0360043516610631565b341561025b57600080fd5b6101be600435602435604435606435610643565b341561027a57600080fd5b6101be610698565b341561028d57600080fd5b6102986004356107b1565b604051600160a060020a03909116815260200160405180910390f35b34156102bf57600080fd5b6101be600160a060020a0360043581169060243590604435166107d9565b6101be610915565b34156102f057600080fd5b6101d3610a49565b341561030357600080fd5b6101d3610a4f565b341561031657600080fd5b6101d3610a55565b341561032957600080fd5b6101be610a5b565b341561033c57600080fd5b61021d600160a060020a0360043516602435610cc1565b341561035e57600080fd5b6101d3610e08565b341561037157600080fd5b6101d3600160a060020a0360043516610e0e565b341561039057600080fd5b610298610f53565b34156103a357600080fd5b6101d3610f62565b34156103b657600080fd5b61021d610f68565b6101be610f77565b34156103d157600080fd5b6101be611071565b34156103e457600080fd5b6101be6110da565b34156103f757600080fd5b61021d600160a060020a03600435166112ca565b341561041657600080fd5b6101be6112df565b341561042957600080fd5b6101be600160a060020a036004351661147e565b341561044857600080fd5b6101be600160a060020a03600435166114c8565b341561046757600080fd5b6101d3611538565b341561047a57600080fd5b61048261153e565b60405160208082528190810183818151815260200191508051906020019060200280838360005b838110156104c15780820151838201526020016104a9565b505050509050019250505060405180910390f35b34156104e057600080fd5b6101be600160a060020a03600435166115a7565b34156104ff57600080fd5b6101be600160a060020a0360043516611744565b341561051e57600080fd5b6101d3611870565b341561053157600080fd5b6101d3611876565b341561054457600080fd5b61021d60043561187c565b341561055a57600080fd5b610298611956565b341561056d57600080fd5b6101be600435600160a060020a0360243516611965565b341561058f57600080fd5b61021d611a3d565b34156105a257600080fd5b61021d611a46565b34156105b557600080fd5b610298611a54565b60035481565b60005433600160a060020a039081169116146105de57600080fd5b600b54600a540142106105f057600080fd5b60055460ff16151560011461060457600080fd5b6000821161061157600080fd5b600291909155600f55565b60066020526000908152604090205460ff1681565b60086020526000908152604090205481565b60005433600160a060020a0390811691161461065e57600080fd5b60055460ff161561066e57600080fd5b42600a55603c938402600b55918302600c558202600d5502600e556005805460ff19166001179055565b60055460ff1615156001146106ac57600080fd5b60005433600160a060020a039081169116146106c757600080fd5b60055460ff6101009091041615156001146106e157600080fd5b600c54600b54600a540101421080156106ff5750600b54600a540142115b151561070a57600080fd5b6002546003541461071a57600080fd5b600054600254600160a060020a039091169080156108fc0290604051600060405180830381858888f19350505050151561075357600080fd5b6005805461ff00191690556002546003805482900390557f99d2165ad610f72b417cc95726d4bde1fcdfe9e7dc70b3003f9f8cb3e8497e8c903390604051600160a060020a03909216825260208201526040908101905180910390a1565b60098054829081106107bf57fe5b600091825260209091200154600160a060020a0316905081565b60055460ff1615156001146107ed57600080fd5b60005433600160a060020a0390811691161461080857600080fd5b600d54600c54600b54600a540101014210801561082e5750600c54600b54600a54010142115b151561083957600080fd5b82600160a060020a031663a9059cbb828460006040516020015260405160e060020a63ffffffff8516028152600160a060020a0390921660048301526024820152604401602060405180830381600087803b151561089657600080fd5b6102c65a03f115156108a757600080fd5b5050506040518051905015156108bc57600080fd5b7f72cb8a894ddb372ceec3d2a7648d86f17d5a15caae0e986c53109b8a9a9385e6838383604051600160a060020a03938416815260208101929092529091166040808301919091526060909101905180910390a1505050565b60055460ff16151560011461092957600080fd5b600160a060020a03331660009081526006602052604090205460ff16151561095057600080fd5b60055460ff61010090910416151560011461096a57600080fd5b600c54600b54600a540101421080156109885750600b54600a540142115b151561099357600080fd5b34600254101580156109a55750600034115b80156109ca5750600254600160a060020a033316600090815260086020526040902054105b15610a4257600380543490810190915533600160a060020a038116600090815260086020526040908190208054840190557ff53640931810d7978a007f7e4a5798294fc3c1d38a5fd9333846a8d9ff5a886e929051600160a060020a03909216825260208201526040908101905180910390a1610a47565b600080fd5b565b600b5481565b600c5481565b600d5481565b60055460009060ff161515600114610a7257600080fd5b600160a060020a03331660009081526006602052604090205460ff161515610a9957600080fd5b600c54600b54600a54010142108015610ab75750600b54600a540142115b1515610ac257600080fd5b50600160a060020a0333166000908152600660205260408120805460ff191690555b60095460001901811015610ba15733600160a060020a0316600982815481101515610b0b57fe5b600091825260209091200154600160a060020a03161415610b9957600980546000198101908110610b3857fe5b60009182526020909120015460098054600160a060020a039092169183908110610b5e57fe5b6000918252602090912001805473ffffffffffffffffffffffffffffffffffffffff1916600160a060020a0392909216919091179055610ba1565b600101610ae4565b600980546000190190610bb49082611a63565b507f2decc674881629dbf40705fd031345984eace319973b73b5b761bc95f457fa6433604051600160a060020a03909116815260200160405180910390a1600160a060020a0333166000908152600860205260408120541115610cbe57600160a060020a033316600081815260086020526040908190205480156108fc029151600060405180830381858888f193505050501515610c5157600080fd5b33600160a060020a0381166000908152600860205260408082208054600380549190910390558290557f87a0e2728a4f54e94c95a99f1bf558895cfbf946a951ec3d94a39856f524edec92919051600160a060020a03909216825260208201526040908101905180910390a15b50565b60105460009033600160a060020a03908116911614610cdf57600080fd5b600e54600d54600c54600b54600a540101010142108015610d095750600c54600b54600a54010142115b1515610d1457600080fd5b601054600160a060020a038085169163a9059cbb91168460006040516020015260405160e060020a63ffffffff8516028152600160a060020a0390921660048301526024820152604401602060405180830381600087803b1515610d7757600080fd5b6102c65a03f11515610d8857600080fd5b505050604051805190501515610d9d57600080fd5b6010547f0dae1d2fece5eab94077f004eabf3ffaebaa2df0a1531e5e25541a2a52398c719084908490600160a060020a0316604051600160a060020a03938416815260208101929092529091166040808301919091526060909101905180910390a150600192915050565b600e5481565b6000600d54600c54600b54600a5401010142108015610e365750600c54600b54600a54010142115b15610eea57600160a060020a03821673eeeeeeeeeeeeeeeeeeeeeeeeeeeeeeeeeeeeeeee1415610e715750600160a060020a03301631610f4e565b81600160a060020a03166370a082313060006040516020015260405160e060020a63ffffffff8416028152600160a060020a039091166004820152602401602060405180830381600087803b1515610ec857600080fd5b6102c65a03f11515610ed957600080fd5b505050604051805190509050610f4e565b600e54600d54600c54600b54600a540101010142108015610f185750600d54600c54600b54600a5401010142115b15610f4a57600160a060020a03821673eeeeeeeeeeeeeeeeeeeeeeeeeeeeeeeeeeeeeeee1415610e7157506000610f4e565b5060005b919050565b600154600160a060020a031681565b60025481565b60055462010000900460ff1681565b60055460ff161515600114610f8b57600080fd5b60005433600160a060020a03908116911614610fa657600080fd5b600554610100900460ff1615610fbb57600080fd5b600c54600b54600a54010142108015610fd95750600b54600a540142115b1515610fe457600080fd5b600254341415610a42576003805434908101909155600160a060020a0333908116600090815260086020526040908190208054840190556005805461ff0019166101001790557fce8f50bef0c9b984189b343b8bf9264667774780224a0b53de9005bb2d384a9f929051600160a060020a03909216825260208201526040908101905180910390a1610a47565b600e54600d54600c54600b54600a5401010101421161108f57600080fd5b60055462010000900460ff16156110a557600080fd5b60055460ff1615156001146110b957600080fd5b600160a060020a033016316004556005805462ff0000191662010000179055565b60055460ff1615156001146110ee57600080fd5b600160a060020a03331660009081526006602052604090205460ff16151561111557600080fd5b600e54600d54600c54600b54600a5401010101421161113357600080fd5b60055462010000900460ff16151560011461114d57600080fd5b600160a060020a03331660009081526007602052604090205460ff161561117357600080fd5b600354600454111561124e57600354600160a060020a033316600081815260086020526040902054600f5460045492936108fc93909291612710918490039082030204028115156111c057fe5b049081150290604051600060405180830381858888f1935050505015156111e657600080fd5b600160a060020a033316600081815260086020526040908190205480156108fc029151600060405180830381858888f19350505050151561122657600080fd5b600160a060020a0333166000908152600760205260409020805460ff19166001179055610a47565b600354600160a060020a03331660008181526008602052604090205460045491926108fc9290910281151561127f57fe5b049081150290604051600060405180830381858888f1935050505015156112a557600080fd5b600160a060020a0333166000908152600760205260409020805460ff19166001179055565b60076020526000908152604090205460ff1681565b60005433600160a060020a039081169116146112fa57600080fd5b60055460ff16151560011461130e57600080fd5b600e54600d54600c54600b54600a5401010101421161132c57600080fd5b60055462010000900460ff16151560011461134657600080fd5b600160a060020a03331660009081526007602052604090205460ff161561136c57600080fd5b600354600454111561145757600054600f54600354600454600160a060020a03909316926127109190039091020480156108fc0290604051600060405180830381858888f1935050505015156113c157600080fd5b600054600354600254600f54600454600160a060020a03909416936108fc939291612710918490039082030204028115156113f857fe5b049081150290604051600060405180830381858888f19350505050151561141e57600080fd5b600054600254600160a060020a039091169080156108fc0290604051600060405180830381858888f19350505050151561122657600080fd5b600054600354600254600454600160a060020a03909316926108fc92910281151561127f57fe5b60015433600160a060020a0390811691161461149957600080fd5b6000805473ffffffffffffffffffffffffffffffffffffffff1916600160a060020a0392909216919091179055565b60005433600160a060020a039081169116146114e357600080fd5b600b54600a540142106114f557600080fd5b60055460ff16151560011461150957600080fd5b6010805473ffffffffffffffffffffffffffffffffffffffff1916600160a060020a0392909216919091179055565b60045481565b611546611a8c565b600980548060200260200160405190810160405280929190818152602001828054801561159c57602002820191906000526020600020905b8154600160a060020a0316815260019091019060200180831161157e575b505050505090505b90565b6000805433600160a060020a039081169116146115c357600080fd5b600b54600a540142106115d557600080fd5b60055460ff1615156001146115e957600080fd5b600160a060020a03821660009081526006602052604090205460ff16151561161057600080fd5b50600160a060020a0381166000908152600660205260408120805460ff191690555b600954600019018110156116ef5781600160a060020a031660098281548110151561165957fe5b600091825260209091200154600160a060020a031614156116e75760098054600019810190811061168657fe5b60009182526020909120015460098054600160a060020a0390921691839081106116ac57fe5b6000918252602090912001805473ffffffffffffffffffffffffffffffffffffffff1916600160a060020a03929092169190911790556116ef565b600101611632565b6009805460001901906117029082611a63565b507f2decc674881629dbf40705fd031345984eace319973b73b5b761bc95f457fa6482604051600160a060020a03909116815260200160405180910390a15050565b60005433600160a060020a0390811691161461175f57600080fd5b600b54600a5401421061177157600080fd5b60055460ff16151560011461178557600080fd5b600160a060020a03811660009081526006602052604090205460ff16156117ab57600080fd5b600054600160a060020a03828116911614156117c657600080fd5b600160a060020a0381166000908152600660205260409020805460ff1916600190811790915560098054909181016117fe8382611a63565b506000918252602090912001805473ffffffffffffffffffffffffffffffffffffffff1916600160a060020a0383161790557f07681ffd9d424587412481b41d2ee582bb7bca757f626b0477051f302947027281604051600160a060020a03909116815260200160405180910390a150565b600f5481565b600a5481565b60105460009033600160a060020a0390811691161461189a57600080fd5b600d54600c54600b54600a54010101421080156118c05750600c54600b54600a54010142115b15156118cb57600080fd5b601054600160a060020a031682156108fc0283604051600060405180830381858888f1935050505015156118fe57600080fd5b6010547f6407afe5c1169d6eda8d2aaf78533c06841f2d71699109e7ccbfdaa4d9a0b574908390600160a060020a0316604051918252600160a060020a031660208201526040908101905180910390a1506001919050565b601054600160a060020a031681565b60055460ff16151560011461197957600080fd5b60005433600160a060020a0390811691161461199457600080fd5b600d54600c54600b54600a54010101421080156119ba5750600c54600b54600a54010142115b15156119c557600080fd5b600160a060020a03811682156108fc0283604051600060405180830381858888f1935050505015156119f657600080fd5b7fec47e7ed86c86774d1a72c19f35c639911393fe7c1a34031fdbd260890da90de8282604051918252600160a060020a031660208201526040908101905180910390a15050565b60055460ff1681565b600554610100900460ff1681565b600054600160a060020a031681565b815481835581811511611a8757600083815260209020611a87918101908301611a9e565b505050565b60206040519081016040526000815290565b6115a491905b80821115611ab85760008155600101611aa4565b50905600a165627a7a72305820929f2be1d5fdfcab4b7cce2f533d71d320956ec96d7b6dd7c83aa537513389c90029",
  "source": "pragma solidity 0.4.18;\n\n/// @title Fund Wallet - Fund raising and distribution wallet according to stake and incentive scheme.\n/// @dev Not fully tested, use only in test environment.\n\n\nimport \"./ERC20Interface.sol\";\n\ncontract FundWallet {\n\n    //storage\n    address public admin;\n    address public backupAdmin;\n    uint public adminStake;\n    uint public raisedBalance;\n    uint public endBalance;\n    bool public timePeriodsSet;\n    bool public adminStaked;\n    bool public endBalanceLogged;\n    mapping (address => bool) public isContributor;\n    mapping (address => bool) public hasClaimed;\n    mapping (address => uint) public stake;\n    address[] public contributors;\n    //experimental time periods\n    uint public start;\n    uint public adminP;\n    uint public raiseP;\n    uint public opperateP;\n    uint public liquidP;\n    //admin reward\n    uint public adminCarry; //in basis points (1% = 100bps)\n    //Kyber Reserve contract address\n    address public reserve;\n    //eth address\n    ERC20 constant internal ETH_TOKEN_ADDRESS = ERC20(0x00eeeeeeeeeeeeeeeeeeeeeeeeeeeeeeeeeeeeeeee);\n\n    //modifiers\n    modifier onlyAdmin() {\n        require(msg.sender == admin);\n        _;\n    }\n\n    modifier onlyBackupAdmin() {\n        require(msg.sender == backupAdmin);\n        _;\n    }\n\n    modifier timePeriodsNotSet() {\n        require(timePeriodsSet == false);\n        _;\n    }\n\n    modifier timePeriodsAreSet() {\n        require(timePeriodsSet == true);\n        _;\n    }\n\n    modifier onlyReserve() {\n        require(msg.sender == reserve);\n        _;\n    }\n\n    modifier onlyContributor() {\n        require(isContributor[msg.sender]);\n        _;\n    }\n\n    modifier adminHasStaked() {\n        require(adminStaked == true);\n        _;\n    }\n\n    modifier adminHasNotStaked() {\n        require(adminStaked == false);\n        _;\n    }\n\n    modifier endBalanceNotLogged() {\n        require(endBalanceLogged == false);\n        _;\n    }\n\n    modifier endBalanceIsLogged() {\n        require(endBalanceLogged == true);\n        _;\n    }\n\n    modifier hasNotClaimed() {\n        require(!hasClaimed[msg.sender]);\n        _;\n    }\n\n    modifier inAdminP() {\n        require(now < (start + adminP));\n        _;\n    }\n\n    modifier inRaiseP() {\n        require(now < (start + adminP + raiseP) && now > (start + adminP));\n        _;\n    }\n\n    modifier inOpperateP() {\n        require(now < (start + adminP + raiseP + opperateP) && now > (start + adminP + raiseP));\n        _;\n    }\n\n    modifier inLiquidP() {\n        require(now < (start + adminP + raiseP + opperateP + liquidP) && now > (start + adminP + raiseP + opperateP));\n        _;\n    }\n\n    modifier inOpAndLiqP() {\n        require(now < (start + adminP + raiseP + opperateP + liquidP) && now > (start + adminP + raiseP));\n        _;\n    }\n\n    modifier inClaimP() {\n        require(now > (start + adminP + raiseP + opperateP + liquidP));\n        _;\n    }\n\n    //events\n    event ContributorAdded(address _contributor);\n    event ContributorRemoval(address _contributor);\n    event ContributorDeposit(address sender, uint value);\n    event ContributorDepositReturn(address _contributor, uint value);\n    event AdminDeposit(address sender, uint value);\n    event AdminDepositReturned(address sender, uint value);\n    event TokenPulled(ERC20 token, uint amount, address sendTo);\n    event EtherPulled(uint amount, address sendTo);\n    event TokenWithdraw(ERC20 token, uint amount, address sendTo);\n    event EtherWithdraw(uint amount, address sendTo);\n\n\n    /// @notice Constructor, initialises admin wallets.\n    /// @param _admin Is main opperator address.\n    /// @param _backupAdmin Is an address which can change the admin address - recommend cold wallet.\n    function FundWallet(address _admin, address _backupAdmin) public {\n        require(_admin != address(0));\n        require(_backupAdmin != address(0));\n        admin = _admin;\n        backupAdmin = _backupAdmin;\n    }\n\n    /// @notice function to set the stake and incentive scheme for the admin;\n    /// @param _adminStake Is the amount that the admin will contribute to the fund.\n    /// @param _adminCarry The admins performance fee in profitable scenario, measured in basis points (1% = 100bps).\n    function setFundScheme(uint _adminStake, uint _adminCarry) public onlyAdmin inAdminP timePeriodsAreSet {\n        require(_adminStake > 0);\n        adminStake = _adminStake;\n        adminCarry = _adminCarry; //bps\n    }\n\n    /// @notice function to set time periods.\n    /// @param _adminP The amount of time during which the admin can set fund parameters and add contributors.\n    /// @param _raiseP The amount of time during which contributors and admin can contribute to the fund. In minutes for testing.\n    /// @param _opperateP The amount of time during which the fund is actively trading/investing. In minutes for testing.\n    /// @param _liquidP The amount of time the admin has to liquidate the fund into base currency - Ether. In minutes for testing.\n    function setTimePeriods(uint _adminP, uint _raiseP, uint _opperateP, uint _liquidP) public onlyAdmin timePeriodsNotSet {\n        start = now;\n        adminP = _adminP * (60 seconds);\n        raiseP = _raiseP * (60 seconds);\n        opperateP = _opperateP * (60 seconds);\n        liquidP = _liquidP * (60 seconds);\n        timePeriodsSet = true;\n    }\n\n    /// @dev set or change reserve address\n    /// @param _reserve the address of corresponding kyber reserve.\n    function setReserve (address _reserve) public onlyAdmin inAdminP timePeriodsAreSet {\n        reserve = _reserve;\n    }\n\n    /// @notice Fallback function - recieves ETH but doesn't alter contributor stakes or raised balance.\n    function() public payable {\n    }\n\n    /// @notice Function to change the admins address\n    /// @dev Only available to the back up admin.\n    /// @param _newAdmin address of the new admin.\n    function changeAdmin(address _newAdmin) public onlyBackupAdmin {\n        admin = _newAdmin;\n    }\n\n    /// @notice Function to add contributor address.\n    /// @dev Only available to admin and in the raising period.\n    /// @param _contributor Address of the new contributor.\n    function addContributor(address _contributor) public onlyAdmin inAdminP timePeriodsAreSet {\n        require(!isContributor[ _contributor]); //only new contributor\n        require(_contributor != admin);\n        isContributor[ _contributor] = true;\n        contributors.push( _contributor);\n        ContributorAdded( _contributor);\n    }\n\n    /// @notice Function to remove contributor address.\n    /// @dev Only available to admin and in the raising period. Returns balance of contributor if they have deposited.\n    /// @param _contributor Address of the contributor to be removed.\n    function removeContributor(address _contributor) public onlyAdmin inAdminP timePeriodsAreSet {\n        require(isContributor[_contributor]);\n        isContributor[_contributor] = false;\n        for (uint i=0; i < contributors.length - 1; i++)\n            if (contributors[i] == _contributor) {\n                contributors[i] = contributors[contributors.length - 1];\n                break;\n            }\n        contributors.length -= 1;\n        ContributorRemoval(_contributor);\n    }\n\n    /// @notice Function to get contributor addresses.\n    function getContributors() public constant returns (address[]){\n        return contributors;\n    }\n\n    /// @notice Function for contributor to deposit funds.\n    /// @dev Only available to contributors after admin had deposited their stake, and in the raising period.\n    function contributorDeposit() public timePeriodsAreSet onlyContributor adminHasStaked inRaiseP payable {\n        if (adminStake >= msg.value && msg.value > 0 && stake[msg.sender] < adminStake) {\n            raisedBalance += msg.value;\n            stake[msg.sender] += msg.value;\n            ContributorDeposit(msg.sender, msg.value);\n        }\n        else {\n            revert();\n        }\n    }\n\n    /// @notice Function for contributor to reclaim their deposit.\n    /// @dev Only available to contributor in the raising period. Removes contributor on refund.\n    function contributorRefund() public timePeriodsAreSet onlyContributor inRaiseP {\n        isContributor[msg.sender] = false;\n        for (uint i=0; i < contributors.length - 1; i++)\n            if (contributors[i] == msg.sender) {\n                contributors[i] = contributors[contributors.length - 1];\n                break;\n            }\n        contributors.length -= 1;\n        ContributorRemoval(msg.sender);\n\n        if (stake[msg.sender] > 0) {\n            msg.sender.transfer(stake[msg.sender]);\n            raisedBalance -= stake[msg.sender];\n            delete stake[msg.sender];\n            ContributorDepositReturn(msg.sender, stake[msg.sender]);\n        }\n    }\n\n    /// @notice Function for admin to deposit their stake.\n    /// @dev Only available to admin and in the raising period.\n    function adminDeposit() public timePeriodsAreSet onlyAdmin adminHasNotStaked inRaiseP payable {\n        if (msg.value == adminStake) {\n            raisedBalance += msg.value;\n            stake[msg.sender] += msg.value;\n            adminStaked = true;\n            AdminDeposit(msg.sender, msg.value);\n        }\n        else {\n            revert();\n        }\n    }\n\n    /// @notice Funtion for admin to reclaim their contribution/stake.\n    /// @dev Only available to admin and in the raising period and if admin is the only one who has contributed to the fund.\n    function adminRefund() public timePeriodsAreSet onlyAdmin adminHasStaked inRaiseP {\n        require(raisedBalance == adminStake);\n        admin.transfer(adminStake);\n        adminStaked = false;\n        raisedBalance -= adminStake;\n        AdminDepositReturned(msg.sender, adminStake);\n    }\n\n    /// @notice Funtion for admin to withdraw ERC20 token while fund is opperating.\n    /// @dev Only available to admin and in the opperating period\n    function withdrawToken(ERC20 token, uint amount, address sendTo) external timePeriodsAreSet onlyAdmin inOpperateP {\n        require(token.transfer(sendTo, amount));\n        TokenWithdraw(token, amount, sendTo);\n    }\n\n    /// @notice Funtion for admin to withdraw ERC20 token while fund is opperating.\n    /// @dev Only available to admin and in the opperating period\n    function withdrawEther(uint amount, address sendTo) external timePeriodsAreSet onlyAdmin inOpperateP {\n        sendTo.transfer(amount);\n        EtherWithdraw(amount, sendTo);\n    }\n\n    /// @notice Funtion to log the ending balance after liquidation period. Used as point of reference to calculate profit/loss.\n    /// @dev Only available in claim period and only available once.\n    function logEndBal() public inClaimP endBalanceNotLogged timePeriodsAreSet {\n        endBalance = address(this).balance;\n        endBalanceLogged = true;\n    }\n\n    /// @notice Funtion for admin to calim their payout.\n    /// @dev Only available to admin in claim period and once the ending balance has been logged. Payout depends on profit or loss.\n    function adminClaim() public onlyAdmin timePeriodsAreSet inClaimP endBalanceIsLogged hasNotClaimed {\n        if (endBalance > raisedBalance) {\n            admin.transfer(((endBalance - raisedBalance)*(adminCarry))/10000); //have variable for adminReward\n            admin.transfer(((((endBalance - raisedBalance)*(10000-adminCarry))/10000)*adminStake)/raisedBalance); // profit share\n            admin.transfer(adminStake); //initial stake\n            hasClaimed[msg.sender] = true;\n        }\n        else {\n            admin.transfer((endBalance*adminStake)/raisedBalance);\n            hasClaimed[msg.sender] = true;\n        }\n    }\n\n    /// @notice Funtion for contributor to claim their payout.\n    /// @dev Only available to contributor in claim period and once the ending balance has been logged. Payout depends on profit or loss.\n    function contributorClaim() public timePeriodsAreSet onlyContributor inClaimP endBalanceIsLogged hasNotClaimed {\n        if (endBalance > raisedBalance) {\n            msg.sender.transfer(((((endBalance - raisedBalance)*(10000-adminCarry))/10000)*stake[msg.sender])/raisedBalance); // profit share\n            msg.sender.transfer(stake[msg.sender]); //initial stake\n            hasClaimed[msg.sender] = true;\n        }\n        else {\n            msg.sender.transfer((endBalance*stake[msg.sender])/raisedBalance);\n            hasClaimed[msg.sender] = true;\n        }\n    }\n\n    //functions to allow trading with reserve address\n\n    /// @dev send erc20token to the reserve address\n    /// @param token ERC20 The address of the token contract\n    function pullToken(ERC20 token, uint amount) external returns (bool){\n        require(msg.sender == reserve);\n        require(now < (start + adminP + raiseP + opperateP + liquidP) && now > (start + adminP + raiseP));\n        require(token.transfer(reserve, amount));\n        TokenPulled(token, amount, reserve);\n        return true;\n    }\n\n    ///@dev Send ether to the reserve address\n    function pullEther(uint amount) external returns (bool){\n        require(msg.sender == reserve);\n        require(now < (start + adminP + raiseP + opperateP) && now > (start + adminP + raiseP));\n        reserve.transfer(amount);\n        EtherPulled(amount, reserve);\n        return true;\n    }\n\n    ///@dev function to check balance only returns balances in opperating and liquidating periods\n    function checkBalance(ERC20 token) public view returns (uint) {\n        if (now < (start + adminP +raiseP + opperateP) && now > (start + adminP + raiseP)) {\n            if (token == ETH_TOKEN_ADDRESS) {\n                return this.balance;\n            }\n            else {\n                return token.balanceOf(this);\n            }\n        }\n        if (now < (start + adminP + raiseP + opperateP + liquidP) && now > (start + adminP + raiseP + opperateP)) {\n            if (token == ETH_TOKEN_ADDRESS) {\n                return 0;\n            }\n            else {\n                return token.balanceOf(this);\n            }\n        }\n        else return 0;\n    }\n\n}\n",
  "sourcePath": "/home/anmol/Documents/dlp-Kyber-test-suite/contracts/FundWallet.sol",
  "compiler": {
    "name": "solc",
    "version": "0.4.18+commit.9cf6e910.Emscripten.clang"
  },
  "schemaVersion": "3.0.0-beta.1",
  "updatedAt": "2019-03-03T04:25:00.596Z"
}