{
  "contractName": "KyberFundReserve",
  "abi": [
    {
      "constant": false,
      "inputs": [
        {
          "name": "alerter",
          "type": "address"
        }
      ],
      "name": "removeAlerter",
      "outputs": [],
      "payable": false,
      "stateMutability": "nonpayable",
      "type": "function"
    },
    {
      "constant": true,
      "inputs": [],
      "name": "pendingAdmin",
      "outputs": [
        {
          "name": "",
          "type": "address"
        }
      ],
      "payable": false,
      "stateMutability": "view",
      "type": "function"
    },
    {
      "constant": true,
      "inputs": [],
      "name": "getOperators",
      "outputs": [
        {
          "name": "",
          "type": "address[]"
        }
      ],
      "payable": false,
      "stateMutability": "view",
      "type": "function"
    },
    {
      "constant": false,
      "inputs": [
        {
          "name": "token",
          "type": "address"
        },
        {
          "name": "amount",
          "type": "uint256"
        },
        {
          "name": "sendTo",
          "type": "address"
        }
      ],
      "name": "withdrawToken",
      "outputs": [],
      "payable": false,
      "stateMutability": "nonpayable",
      "type": "function"
    },
    {
      "constant": false,
      "inputs": [
        {
          "name": "newAlerter",
          "type": "address"
        }
      ],
      "name": "addAlerter",
      "outputs": [],
      "payable": false,
      "stateMutability": "nonpayable",
      "type": "function"
    },
    {
      "constant": true,
      "inputs": [],
      "name": "sanityRatesContract",
      "outputs": [
        {
          "name": "",
          "type": "address"
        }
      ],
      "payable": false,
      "stateMutability": "view",
      "type": "function"
    },
    {
      "constant": true,
      "inputs": [],
      "name": "fundWalletContract",
      "outputs": [
        {
          "name": "",
          "type": "address"
        }
      ],
      "payable": false,
      "stateMutability": "view",
      "type": "function"
    },
    {
      "constant": false,
      "inputs": [
        {
          "name": "newAdmin",
          "type": "address"
        }
      ],
      "name": "transferAdmin",
      "outputs": [],
      "payable": false,
      "stateMutability": "nonpayable",
      "type": "function"
    },
    {
      "constant": false,
      "inputs": [],
      "name": "claimAdmin",
      "outputs": [],
      "payable": false,
      "stateMutability": "nonpayable",
      "type": "function"
    },
    {
      "constant": false,
      "inputs": [
        {
          "name": "newAdmin",
          "type": "address"
        }
      ],
      "name": "transferAdminQuickly",
      "outputs": [],
      "payable": false,
      "stateMutability": "nonpayable",
      "type": "function"
    },
    {
      "constant": true,
      "inputs": [],
      "name": "getAlerters",
      "outputs": [
        {
          "name": "",
          "type": "address[]"
        }
      ],
      "payable": false,
      "stateMutability": "view",
      "type": "function"
    },
    {
      "constant": false,
      "inputs": [
        {
          "name": "newOperator",
          "type": "address"
        }
      ],
      "name": "addOperator",
      "outputs": [],
      "payable": false,
      "stateMutability": "nonpayable",
      "type": "function"
    },
    {
      "constant": false,
      "inputs": [
        {
          "name": "operator",
          "type": "address"
        }
      ],
      "name": "removeOperator",
      "outputs": [],
      "payable": false,
      "stateMutability": "nonpayable",
      "type": "function"
    },
    {
      "constant": true,
      "inputs": [],
      "name": "kyberNetwork",
      "outputs": [
        {
          "name": "",
          "type": "address"
        }
      ],
      "payable": false,
      "stateMutability": "view",
      "type": "function"
    },
    {
      "constant": false,
      "inputs": [
        {
          "name": "amount",
          "type": "uint256"
        },
        {
          "name": "sendTo",
          "type": "address"
        }
      ],
      "name": "withdrawEther",
      "outputs": [],
      "payable": false,
      "stateMutability": "nonpayable",
      "type": "function"
    },
    {
      "constant": true,
      "inputs": [],
      "name": "conversionRatesContract",
      "outputs": [
        {
          "name": "",
          "type": "address"
        }
      ],
      "payable": false,
      "stateMutability": "view",
      "type": "function"
    },
    {
      "constant": true,
      "inputs": [],
      "name": "tradeEnabled",
      "outputs": [
        {
          "name": "",
          "type": "bool"
        }
      ],
      "payable": false,
      "stateMutability": "view",
      "type": "function"
    },
    {
      "constant": true,
      "inputs": [
        {
          "name": "",
          "type": "bytes32"
        }
      ],
      "name": "approvedWithdrawAddresses",
      "outputs": [
        {
          "name": "",
          "type": "bool"
        }
      ],
      "payable": false,
      "stateMutability": "view",
      "type": "function"
    },
    {
      "constant": true,
      "inputs": [],
      "name": "admin",
      "outputs": [
        {
          "name": "",
          "type": "address"
        }
      ],
      "payable": false,
      "stateMutability": "view",
      "type": "function"
    },
    {
      "inputs": [
        {
          "name": "_kyberNetwork",
          "type": "address"
        },
        {
          "name": "_ratesContract",
          "type": "address"
        },
        {
          "name": "_fundWallet",
          "type": "address"
        },
        {
          "name": "_admin",
          "type": "address"
        }
      ],
      "payable": false,
      "stateMutability": "nonpayable",
      "type": "constructor"
    },
    {
      "payable": true,
      "stateMutability": "payable",
      "type": "fallback"
    },
    {
      "anonymous": false,
      "inputs": [
        {
          "indexed": false,
          "name": "token",
          "type": "address"
        },
        {
          "indexed": false,
          "name": "amount",
          "type": "uint256"
        }
      ],
      "name": "DepositToken",
      "type": "event"
    },
    {
      "anonymous": false,
      "inputs": [
        {
          "indexed": true,
          "name": "origin",
          "type": "address"
        },
        {
          "indexed": false,
          "name": "src",
          "type": "address"
        },
        {
          "indexed": false,
          "name": "srcAmount",
          "type": "uint256"
        },
        {
          "indexed": false,
          "name": "destToken",
          "type": "address"
        },
        {
          "indexed": false,
          "name": "destAmount",
          "type": "uint256"
        },
        {
          "indexed": false,
          "name": "destAddress",
          "type": "address"
        }
      ],
      "name": "TradeExecute",
      "type": "event"
    },
    {
      "anonymous": false,
      "inputs": [
        {
          "indexed": false,
          "name": "enable",
          "type": "bool"
        }
      ],
      "name": "TradeEnabled",
      "type": "event"
    },
    {
      "anonymous": false,
      "inputs": [
        {
          "indexed": false,
          "name": "token",
          "type": "address"
        },
        {
          "indexed": false,
          "name": "addr",
          "type": "address"
        },
        {
          "indexed": false,
          "name": "approve",
          "type": "bool"
        }
      ],
      "name": "WithdrawAddressApproved",
      "type": "event"
    },
    {
      "anonymous": false,
      "inputs": [
        {
          "indexed": false,
          "name": "token",
          "type": "address"
        },
        {
          "indexed": false,
          "name": "amount",
          "type": "uint256"
        },
        {
          "indexed": false,
          "name": "destination",
          "type": "address"
        }
      ],
      "name": "WithdrawFunds",
      "type": "event"
    },
    {
      "anonymous": false,
      "inputs": [
        {
          "indexed": false,
          "name": "network",
          "type": "address"
        },
        {
          "indexed": false,
          "name": "rate",
          "type": "address"
        },
        {
          "indexed": false,
          "name": "sanity",
          "type": "address"
        }
      ],
      "name": "SetContractAddresses",
      "type": "event"
    },
    {
      "anonymous": false,
      "inputs": [
        {
          "indexed": false,
          "name": "token",
          "type": "address"
        },
        {
          "indexed": false,
          "name": "amount",
          "type": "uint256"
        },
        {
          "indexed": false,
          "name": "sendTo",
          "type": "address"
        }
      ],
      "name": "TokenWithdraw",
      "type": "event"
    },
    {
      "anonymous": false,
      "inputs": [
        {
          "indexed": false,
          "name": "amount",
          "type": "uint256"
        },
        {
          "indexed": false,
          "name": "sendTo",
          "type": "address"
        }
      ],
      "name": "EtherWithdraw",
      "type": "event"
    },
    {
      "anonymous": false,
      "inputs": [
        {
          "indexed": false,
          "name": "pendingAdmin",
          "type": "address"
        }
      ],
      "name": "TransferAdminPending",
      "type": "event"
    },
    {
      "anonymous": false,
      "inputs": [
        {
          "indexed": false,
          "name": "newAdmin",
          "type": "address"
        },
        {
          "indexed": false,
          "name": "previousAdmin",
          "type": "address"
        }
      ],
      "name": "AdminClaimed",
      "type": "event"
    },
    {
      "anonymous": false,
      "inputs": [
        {
          "indexed": false,
          "name": "newAlerter",
          "type": "address"
        },
        {
          "indexed": false,
          "name": "isAdd",
          "type": "bool"
        }
      ],
      "name": "AlerterAdded",
      "type": "event"
    },
    {
      "anonymous": false,
      "inputs": [
        {
          "indexed": false,
          "name": "newOperator",
          "type": "address"
        },
        {
          "indexed": false,
          "name": "isAdd",
          "type": "bool"
        }
      ],
      "name": "OperatorAdded",
      "type": "event"
    },
    {
      "constant": false,
      "inputs": [
        {
          "name": "srcToken",
          "type": "address"
        },
        {
          "name": "srcAmount",
          "type": "uint256"
        },
        {
          "name": "destToken",
          "type": "address"
        },
        {
          "name": "destAddress",
          "type": "address"
        },
        {
          "name": "conversionRate",
          "type": "uint256"
        },
        {
          "name": "validate",
          "type": "bool"
        }
      ],
      "name": "trade",
      "outputs": [
        {
          "name": "",
          "type": "bool"
        }
      ],
      "payable": true,
      "stateMutability": "payable",
      "type": "function"
    },
    {
      "constant": false,
      "inputs": [],
      "name": "enableTrade",
      "outputs": [
        {
          "name": "",
          "type": "bool"
        }
      ],
      "payable": false,
      "stateMutability": "nonpayable",
      "type": "function"
    },
    {
      "constant": false,
      "inputs": [],
      "name": "disableTrade",
      "outputs": [
        {
          "name": "",
          "type": "bool"
        }
      ],
      "payable": false,
      "stateMutability": "nonpayable",
      "type": "function"
    },
    {
      "constant": false,
      "inputs": [
        {
          "name": "token",
          "type": "address"
        },
        {
          "name": "addr",
          "type": "address"
        },
        {
          "name": "approve",
          "type": "bool"
        }
      ],
      "name": "approveWithdrawAddress",
      "outputs": [],
      "payable": false,
      "stateMutability": "nonpayable",
      "type": "function"
    },
    {
      "constant": false,
      "inputs": [
        {
          "name": "_fundWallet",
          "type": "address"
        }
      ],
      "name": "setFundWallet",
      "outputs": [],
      "payable": false,
      "stateMutability": "nonpayable",
      "type": "function"
    },
    {
      "constant": false,
      "inputs": [
        {
          "name": "token",
          "type": "address"
        },
        {
          "name": "amount",
          "type": "uint256"
        },
        {
          "name": "destination",
          "type": "address"
        }
      ],
      "name": "withdraw",
      "outputs": [
        {
          "name": "",
          "type": "bool"
        }
      ],
      "payable": false,
      "stateMutability": "nonpayable",
      "type": "function"
    },
    {
      "constant": false,
      "inputs": [
        {
          "name": "_kyberNetwork",
          "type": "address"
        },
        {
          "name": "_conversionRates",
          "type": "address"
        },
        {
          "name": "_sanityRates",
          "type": "address"
        }
      ],
      "name": "setContracts",
      "outputs": [],
      "payable": false,
      "stateMutability": "nonpayable",
      "type": "function"
    },
    {
      "constant": true,
      "inputs": [
        {
          "name": "token",
          "type": "address"
        }
      ],
      "name": "getBalance",
      "outputs": [
        {
          "name": "",
          "type": "uint256"
        }
      ],
      "payable": false,
      "stateMutability": "view",
      "type": "function"
    },
    {
      "constant": true,
      "inputs": [
        {
          "name": "token",
          "type": "address"
        }
      ],
      "name": "fetchBalance",
      "outputs": [
        {
          "name": "",
          "type": "uint256"
        }
      ],
      "payable": false,
      "stateMutability": "view",
      "type": "function"
    },
    {
      "constant": true,
      "inputs": [
        {
          "name": "src",
          "type": "address"
        },
        {
          "name": "dest",
          "type": "address"
        },
        {
          "name": "srcQty",
          "type": "uint256"
        },
        {
          "name": "rate",
          "type": "uint256"
        }
      ],
      "name": "getDestQty",
      "outputs": [
        {
          "name": "",
          "type": "uint256"
        }
      ],
      "payable": false,
      "stateMutability": "view",
      "type": "function"
    },
    {
      "constant": true,
      "inputs": [
        {
          "name": "src",
          "type": "address"
        },
        {
          "name": "dest",
          "type": "address"
        },
        {
          "name": "dstQty",
          "type": "uint256"
        },
        {
          "name": "rate",
          "type": "uint256"
        }
      ],
      "name": "getSrcQty",
      "outputs": [
        {
          "name": "",
          "type": "uint256"
        }
      ],
      "payable": false,
      "stateMutability": "view",
      "type": "function"
    },
    {
      "constant": true,
      "inputs": [
        {
          "name": "src",
          "type": "address"
        },
        {
          "name": "dest",
          "type": "address"
        },
        {
          "name": "srcQty",
          "type": "uint256"
        },
        {
          "name": "blockNumber",
          "type": "uint256"
        }
      ],
      "name": "getConversionRate",
      "outputs": [
        {
          "name": "",
          "type": "uint256"
        }
      ],
      "payable": false,
      "stateMutability": "view",
      "type": "function"
    }
  ],
  "bytecode": "0x6060604052341561000f57600080fd5b6040516080806121198339810160405280805191906020018051919060200180519190602001805160008054600160a060020a03191633600160a060020a039081169190911790915590925082161515905061006a57600080fd5b600160a060020a038316151561007f57600080fd5b600160a060020a038416151561009457600080fd5b600160a060020a03821615156100a957600080fd5b6007805460088054600160a060020a03968716600160a060020a031991821617909155600a805495871695821695909517909455600080549386169385169390931790925560a060020a60ff0219939094169116171674010000000000000000000000000000000000000000179055611ff2806101276000396000f3006060604052600436106101705763ffffffff60e060020a60003504166299d38681146101ca57806301a12fd3146101f1578063267822471461021257806327a099d8146102415780633ccdbb28146102a7578063408ee7fe146102d057806347e6924f146102ef578063546dc71c1461030257806355ce3b9a1461032c57806366c97bc61461034b57806369328dec1461035e5780636940030f146103875780636cf698111461039a57806375829def146103c657806377f50f97146103e55780637acc8678146103f85780637c423f54146104175780637cd442721461042a5780639870d7fe14610467578063a7fca95314610486578063ac8a584a146104b1578063b3066d49146104d0578063b78b842d146104fb578063ce56c4541461050e578063d5847d3314610530578063d621e81314610543578063d7b7024d14610556578063ed2872b11461056c578063f851a4401461058b578063f8b2cb4f1461059e578063fa64dffa146105bd575b7f2d0c0a8842b9944ece1495eb61121621b5e36bd6af3bba0318c695f525aef79f73eeeeeeeeeeeeeeeeeeeeeeeeeeeeeeeeeeeeeeee34604051600160a060020a03909216825260208201526040908101905180910390a1005b34156101d557600080fd5b6101dd6105e8565b604051901515815260200160405180910390f35b34156101fc57600080fd5b610210600160a060020a0360043516610676565b005b341561021d57600080fd5b6102256107e6565b604051600160a060020a03909116815260200160405180910390f35b341561024c57600080fd5b6102546107f5565b60405160208082528190810183818151815260200191508051906020019060200280838360005b8381101561029357808201518382015260200161027b565b505050509050019250505060405180910390f35b34156102b257600080fd5b610210600160a060020a03600435811690602435906044351661085d565b34156102db57600080fd5b610210600160a060020a0360043516610954565b34156102fa57600080fd5b610225610a50565b341561030d57600080fd5b610210600160a060020a03600435811690602435166044351515610a5f565b341561033757600080fd5b610210600160a060020a0360043516610b3e565b341561035657600080fd5b610225610b90565b341561036957600080fd5b6101dd600160a060020a036004358116906024359060443516610b9f565b341561039257600080fd5b6101dd610d86565b6101dd600160a060020a03600435811690602435906044358116906064351660843560a4351515610e07565b34156103d157600080fd5b610210600160a060020a0360043516610e74565b34156103f057600080fd5b610210610f0f565b341561040357600080fd5b610210600160a060020a0360043516610fa9565b341561042257600080fd5b61025461108b565b341561043557600080fd5b610455600160a060020a03600435811690602435166044356064356110f1565b60405190815260200160405180910390f35b341561047257600080fd5b610210600160a060020a03600435166112e8565b341561049157600080fd5b610455600160a060020a03600435811690602435166044356064356113b8565b34156104bc57600080fd5b610210600160a060020a03600435166113ea565b34156104db57600080fd5b610210600160a060020a0360043581169060243581169060443516611556565b341561050657600080fd5b61022561163a565b341561051957600080fd5b610210600435600160a060020a0360243516611649565b341561053b57600080fd5b6102256116dc565b341561054e57600080fd5b6101dd6116eb565b341561056157600080fd5b6101dd60043561170c565b341561057757600080fd5b610455600160a060020a0360043516611721565b341561059657600080fd5b61022561179c565b34156105a957600080fd5b610455600160a060020a03600435166117ab565b34156105c857600080fd5b610455600160a060020a03600435811690602435166044356064356117bc565b6000805433600160a060020a0390811691161461060457600080fd5b6007805474ff00000000000000000000000000000000000000001916740100000000000000000000000000000000000000001790557f7d7f00509dd73ac4449f698ae75ccc797895eff5fa9d446d3df387598a26e7356001604051901515815260200160405180910390a15060015b90565b6000805433600160a060020a0390811691161461069257600080fd5b600160a060020a03821660009081526003602052604090205460ff1615156106b957600080fd5b50600160a060020a0381166000908152600360205260408120805460ff191690555b6005548110156107e25781600160a060020a03166005828154811015156106fe57fe5b600091825260209091200154600160a060020a031614156107da5760058054600019810190811061072b57fe5b60009182526020909120015460058054600160a060020a03909216918390811061075157fe5b60009182526020909120018054600160a060020a031916600160a060020a0392909216919091179055600580549061078d906000198301611f72565b507f5611bf3e417d124f97bf2c788843ea8bb502b66079fbee02158ef30b172cb762826000604051600160a060020a039092168252151560208201526040908101905180910390a16107e2565b6001016106db565b5050565b600154600160a060020a031681565b6107fd611f96565b600480548060200260200160405190810160405280929190818152602001828054801561085357602002820191906000526020600020905b8154600160a060020a03168152600190910190602001808311610835575b5050505050905090565b60005433600160a060020a0390811691161461087857600080fd5b82600160a060020a031663a9059cbb828460006040516020015260405160e060020a63ffffffff8516028152600160a060020a0390921660048301526024820152604401602060405180830381600087803b15156108d557600080fd5b6102c65a03f115156108e657600080fd5b5050506040518051905015156108fb57600080fd5b7f72cb8a894ddb372ceec3d2a7648d86f17d5a15caae0e986c53109b8a9a9385e6838383604051600160a060020a03938416815260208101929092529091166040808301919091526060909101905180910390a1505050565b60005433600160a060020a0390811691161461096f57600080fd5b600160a060020a03811660009081526003602052604090205460ff161561099557600080fd5b600554603290106109a557600080fd5b7f5611bf3e417d124f97bf2c788843ea8bb502b66079fbee02158ef30b172cb762816001604051600160a060020a039092168252151560208201526040908101905180910390a1600160a060020a0381166000908152600360205260409020805460ff191660019081179091556005805490918101610a248382611f72565b5060009182526020909120018054600160a060020a031916600160a060020a0392909216919091179055565b600954600160a060020a031681565b60005433600160a060020a03908116911614610a7a57600080fd5b80600b600085856040516c01000000000000000000000000600160a060020a039384168102825291909216026014820152602801604051908190039020815260208101919091526040908101600020805460ff1916921515929092179091557fd5fd5351efae1f4bb760079da9f0ff9589e2c3e216337ca9d39cdff573b245c49084908490849051600160a060020a0393841681529190921660208201529015156040808301919091526060909101905180910390a1610b39836117e3565b505050565b60005433600160a060020a03908116911614610b5957600080fd5b600160a060020a0381161515610b6e57600080fd5b600a8054600160a060020a031916600160a060020a0392909216919091179055565b600a54600160a060020a031681565b600160a060020a03331660009081526002602052604081205460ff161515610bc657600080fd5b600b600085846040516c01000000000000000000000000600160a060020a039384168102825291909216026014820152602801604051908190039020815260208101919091526040016000205460ff161515610c2157600080fd5b600160a060020a03841673eeeeeeeeeeeeeeeeeeeeeeeeeeeeeeeeeeeeeeee1415610c9057610c4f836118a6565b1515610c5a57600080fd5b600160a060020a03821683156108fc0284604051600060405180830381858888f193505050501515610c8b57600080fd5b610d28565b610c9a8484611927565b1515610ca557600080fd5b83600160a060020a031663a9059cbb838560006040516020015260405160e060020a63ffffffff8516028152600160a060020a0390921660048301526024820152604401602060405180830381600087803b1515610d0257600080fd5b6102c65a03f11515610d1357600080fd5b505050604051805190501515610d2857600080fd5b7fb67719fc33c1f17d31bf3a698690d62066b1e0bae28fcd3c56cf2c015c2863d6848484604051600160a060020a03938416815260208101929092529091166040808301919091526060909101905180910390a15060019392505050565b600160a060020a03331660009081526003602052604081205460ff161515610dad57600080fd5b6007805474ff0000000000000000000000000000000000000000191690557f7d7f00509dd73ac4449f698ae75ccc797895eff5fa9d446d3df387598a26e7356000604051901515815260200160405180910390a150600190565b60075460009074010000000000000000000000000000000000000000900460ff161515610e3357600080fd5b60075433600160a060020a03908116911614610e4e57600080fd5b610e5c8787878787876119b7565b1515610e6757600080fd5b5060019695505050505050565b60005433600160a060020a03908116911614610e8f57600080fd5b600160a060020a0381161515610ea457600080fd5b6001547f3b81caf78fa51ecbc8acb482fd7012a277b428d9b80f9d156e8a54107496cc4090600160a060020a0316604051600160a060020a03909116815260200160405180910390a160018054600160a060020a031916600160a060020a0392909216919091179055565b60015433600160a060020a03908116911614610f2a57600080fd5b6001546000547f65da1cfc2c2e81576ad96afb24a581f8e109b7a403b35cbd3243a1c99efdb9ed91600160a060020a039081169116604051600160a060020a039283168152911660208201526040908101905180910390a16001805460008054600160a060020a0319908116600160a060020a03841617909155169055565b60005433600160a060020a03908116911614610fc457600080fd5b600160a060020a0381161515610fd957600080fd5b7f3b81caf78fa51ecbc8acb482fd7012a277b428d9b80f9d156e8a54107496cc4081604051600160a060020a03909116815260200160405180910390a16000547f65da1cfc2c2e81576ad96afb24a581f8e109b7a403b35cbd3243a1c99efdb9ed908290600160a060020a0316604051600160a060020a039283168152911660208201526040908101905180910390a160008054600160a060020a031916600160a060020a0392909216919091179055565b611093611f96565b600580548060200260200160405190810160405280929190818152602001828054801561085357602002820191906000526020600020908154600160a060020a03168152600190910190602001808311610835575050505050905090565b600080600080600080600760149054906101000a900460ff16151561111957600095506112db565b73eeeeeeeeeeeeeeeeeeeeeeeeeeeeeeeeeeeeeeee600160a060020a038b16141561114a5760019350889450611184565b73eeeeeeeeeeeeeeeeeeeeeeeeeeeeeeeeeeeeeeee600160a060020a038a16141561117b5760009350899450611184565b600095506112db565b600854600160a060020a031663b8e9c22e8689878c60006040516020015260405160e060020a63ffffffff8716028152600160a060020a0390941660048501526024840192909252151560448301526064820152608401602060405180830381600087803b15156111f457600080fd5b6102c65a03f1151561120557600080fd5b50505060405180519050925061121d8a8a8a866117bc565b9150816112298a6117ab565b101561123857600095506112db565b600954600160a060020a0316156112d757600954600160a060020a031663a58092b78b8b60006040516020015260405160e060020a63ffffffff8516028152600160a060020a03928316600482015291166024820152604401602060405180830381600087803b15156112aa57600080fd5b6102c65a03f115156112bb57600080fd5b5050506040518051915050808311156112d757600095506112db565b8295505b5050505050949350505050565b60005433600160a060020a0390811691161461130357600080fd5b600160a060020a03811660009081526002602052604090205460ff161561132957600080fd5b6004546032901061133957600080fd5b7f091a7a4b85135fdd7e8dbc18b12fabe5cc191ea867aa3c2e1a24a102af61d58b816001604051600160a060020a039092168252151560208201526040908101905180910390a1600160a060020a0381166000908152600260205260409020805460ff191660019081179091556004805490918101610a248382611f72565b60008060006113c686611d38565b91506113d187611d38565b90506113df85828487611dfc565b979650505050505050565b6000805433600160a060020a0390811691161461140657600080fd5b600160a060020a03821660009081526002602052604090205460ff16151561142d57600080fd5b50600160a060020a0381166000908152600260205260408120805460ff191690555b6004548110156107e25781600160a060020a031660048281548110151561147257fe5b600091825260209091200154600160a060020a0316141561154e5760048054600019810190811061149f57fe5b60009182526020909120015460048054600160a060020a0390921691839081106114c557fe5b60009182526020909120018054600160a060020a031916600160a060020a03929092169190911790556004805460001901906115019082611f72565b507f091a7a4b85135fdd7e8dbc18b12fabe5cc191ea867aa3c2e1a24a102af61d58b826000604051600160a060020a039092168252151560208201526040908101905180910390a16107e2565b60010161144f565b60005433600160a060020a0390811691161461157157600080fd5b600160a060020a038316151561158657600080fd5b600160a060020a038216151561159b57600080fd5b60078054600160a060020a03808616600160a060020a0319928316179283905560088054868316908416179081905560098054868416941693909317928390557f7a85322644a4462d8ff5482d2a841a4d231f8cfb3c9f4a50f66f8b2bd568c31c938216929082169116604051600160a060020a03938416815291831660208301529091166040808301919091526060909101905180910390a1505050565b600754600160a060020a031681565b60005433600160a060020a0390811691161461166457600080fd5b600160a060020a03811682156108fc0283604051600060405180830381858888f19350505050151561169557600080fd5b7fec47e7ed86c86774d1a72c19f35c639911393fe7c1a34031fdbd260890da90de8282604051918252600160a060020a031660208201526040908101905180910390a15050565b600854600160a060020a031681565b60075474010000000000000000000000000000000000000000900460ff1681565b600b6020526000908152604090205460ff1681565b600a54600090600160a060020a0316635f51522683836040516020015260405160e060020a63ffffffff8416028152600160a060020a039091166004820152602401602060405180830381600087803b151561177c57600080fd5b6102c65a03f1151561178d57600080fd5b50505060405180519392505050565b600054600160a060020a031681565b60006117b682611721565b92915050565b60008060006117ca86611d38565b91506117d587611d38565b90506113df85828487611ea3565b600160a060020a03811673eeeeeeeeeeeeeeeeeeeeeeeeeeeeeeeeeeeeeeee141561182957600160a060020a0381166000908152600660205260409020601290556118a3565b80600160a060020a031663313ce5676000604051602001526040518163ffffffff1660e060020a028152600401602060405180830381600087803b151561186f57600080fd5b6102c65a03f1151561188057600080fd5b5050506040518051600160a060020a038316600090815260066020526040902055505b50565b600a54600090600160a060020a031663c783dc9e83836040516020015260405160e060020a63ffffffff84160281526004810191909152602401602060405180830381600087803b15156118f957600080fd5b6102c65a03f1151561190a57600080fd5b50505060405180519050151561191f57600080fd5b506001919050565b600a54600090600160a060020a0316635306e4b38484846040516020015260405160e060020a63ffffffff8516028152600160a060020a0390921660048301526024820152604401602060405180830381600087803b151561198857600080fd5b6102c65a03f1151561199957600080fd5b5050506040518051905015156119ae57600080fd5b50600192915050565b6000806000808415611a1157600086116119d057600080fd5b600160a060020a038a1673eeeeeeeeeeeeeeeeeeeeeeeeeeeeeeeeeeeeeeee1415611a0657348914611a0157600080fd5b611a11565b3415611a1157600080fd5b611a1d8a898b896117bc565b925060008311611a2c57600080fd5b600160a060020a038a1673eeeeeeeeeeeeeeeeeeeeeeeeeeeeeeeeeeeeeeee1415611a5b575086905081611a65565b5088905060001988025b600854600160a060020a031663c6fd2103838360004360405160e060020a63ffffffff8716028152600160a060020a039094166004850152602484019290925260448301526064820152608401600060405180830381600087803b1515611acb57600080fd5b6102c65a03f11515611adc57600080fd5b505050600160a060020a038a1673eeeeeeeeeeeeeeeeeeeeeeeeeeeeeeeeeeeeeeee1415611b1d57611b0d89611f3c565b1515611b1857600080fd5b611bb4565b600a54600160a060020a03808c16916323b872dd913391168c60006040516020015260405160e060020a63ffffffff8616028152600160a060020a0393841660048201529190921660248201526044810191909152606401602060405180830381600087803b1515611b8e57600080fd5b6102c65a03f11515611b9f57600080fd5b505050604051805190501515611bb457600080fd5b600160a060020a03881673eeeeeeeeeeeeeeeeeeeeeeeeeeeeeeeeeeeeeeee1415611c2357611be2836118a6565b1515611bed57600080fd5b600160a060020a03871683156108fc0284604051600060405180830381858888f193505050501515611c1e57600080fd5b611cbb565b611c2d8884611927565b1515611c3857600080fd5b87600160a060020a031663a9059cbb888560006040516020015260405160e060020a63ffffffff8516028152600160a060020a0390921660048301526024820152604401602060405180830381600087803b1515611c9557600080fd5b6102c65a03f11515611ca657600080fd5b505050604051805190501515611cbb57600080fd5b33600160a060020a03167fea9415385bae08fe9f6dc457b02577166790cde83bb18cc340aac6cb81b824de8b8b8b878c604051600160a060020a039586168152602081019490945291841660408085019190915260608401919091529216608082015260a001905180910390a25060019998505050505050505050565b600080600160a060020a03831673eeeeeeeeeeeeeeeeeeeeeeeeeeeeeeeeeeeeeeee1415611d695760129150611df6565b50600160a060020a038216600090815260066020526040902054801515611df25782600160a060020a031663313ce5676000604051602001526040518163ffffffff1660e060020a028152600401602060405180830381600087803b1515611dd057600080fd5b6102c65a03f11515611de157600080fd5b505050604051805190509150611df6565b8091505b50919050565b600080806b204fce5e3e25026110000000871115611e1957600080fd5b69d3c21bcecceda1000000841115611e3057600080fd5b848610611e615760128587031115611e4757600080fd5b5050828403600a0a8502670de0b6b3a76400000282611e87565b60128686031115611e7157600080fd5b5050670de0b6b3a76400008502848403600a0a83025b80600182840103811515611e9757fe5b04979650505050505050565b60006b204fce5e3e25026110000000851115611ebe57600080fd5b69d3c21bcecceda1000000821115611ed557600080fd5b838310611f085760128484031115611eec57600080fd5b670de0b6b3a7640000858302858503600a0a025b049050611f34565b60128385031115611f1857600080fd5b828403600a0a670de0b6b3a764000002828602811515611f0057fe5b949350505050565b600a54600090600160a060020a031682156108fc0283604051600060405180830381858888f19350505050151561191f57600080fd5b815481835581811511610b3957600083815260209020610b39918101908301611fa8565b60206040519081016040526000815290565b61067391905b80821115611fc25760008155600101611fae565b50905600a165627a7a723058206172d6c671dd9dd63f0238f36dc18a52ade0484c644ddd9fad4bd4be21298cb90029",
  "source": "pragma solidity 0.4.18;\n\n\nimport \"./ERC20Interface.sol\";\nimport \"./Utils.sol\";\nimport \"./Withdrawable.sol\";\nimport \"./ConversionRatesInterface.sol\";\nimport \"./SanityRatesInterface.sol\";\nimport \"./KyberReserveInterface.sol\";\nimport \"./FundWalletInterface.sol\";\n\n\n/// @title Kyber Fund Reserve contract\ncontract KyberFundReserve is KyberReserveInterface, Withdrawable, Utils {\n\n    address public kyberNetwork;\n    bool public tradeEnabled;\n    ConversionRatesInterface public conversionRatesContract;\n    SanityRatesInterface public sanityRatesContract;\n    FundWalletInterface public fundWalletContract;\n    mapping(bytes32=>bool) public approvedWithdrawAddresses; // sha3(token,address)=>bool\n\n    function KyberFundReserve(address _kyberNetwork, ConversionRatesInterface _ratesContract, FundWalletInterface _fundWallet, address _admin) public {\n        require(_admin != address(0));\n        require(_ratesContract != address(0));\n        require(_kyberNetwork != address(0));\n        require(_fundWallet != address(0));\n        kyberNetwork = _kyberNetwork;\n        conversionRatesContract = _ratesContract;\n        fundWalletContract = _fundWallet;\n        admin = _admin;\n        tradeEnabled = true;\n    }\n\n    event DepositToken(ERC20 token, uint amount);\n\n    function() public payable {\n        DepositToken(ETH_TOKEN_ADDRESS, msg.value);\n    }\n\n    event TradeExecute(\n        address indexed origin,\n        address src,\n        uint srcAmount,\n        address destToken,\n        uint destAmount,\n        address destAddress\n    );\n\n    function trade(\n        ERC20 srcToken,\n        uint srcAmount,\n        ERC20 destToken,\n        address destAddress,\n        uint conversionRate,\n        bool validate\n    )\n        public\n        payable\n        returns(bool)\n    {\n        require(tradeEnabled);\n        require(msg.sender == kyberNetwork);\n\n        require(doTrade(srcToken, srcAmount, destToken, destAddress, conversionRate, validate));\n\n        return true;\n    }\n\n    event TradeEnabled(bool enable);\n\n    function enableTrade() public onlyAdmin returns(bool) {\n        tradeEnabled = true;\n        TradeEnabled(true);\n\n        return true;\n    }\n\n    function disableTrade() public onlyAlerter returns(bool) {\n        tradeEnabled = false;\n        TradeEnabled(false);\n\n        return true;\n    }\n\n    event WithdrawAddressApproved(ERC20 token, address addr, bool approve);\n\n    function approveWithdrawAddress(ERC20 token, address addr, bool approve) public onlyAdmin {\n        approvedWithdrawAddresses[keccak256(token, addr)] = approve;\n        WithdrawAddressApproved(token, addr, approve);\n\n        setDecimals(token);\n    }\n\n    function setFundWallet(FundWalletInterface _fundWallet) public onlyAdmin {\n        require(_fundWallet != address(0x0));\n        fundWalletContract = _fundWallet;\n    }\n\n    event WithdrawFunds(ERC20 token, uint amount, address destination);\n\n    function withdraw(ERC20 token, uint amount, address destination) public onlyOperator returns(bool) {\n        require(approvedWithdrawAddresses[keccak256(token, destination)]);\n\n        if (token == ETH_TOKEN_ADDRESS) {\n            require(ethPuller(amount));\n            destination.transfer(amount);\n        } else {\n            require(tokenPuller(token, amount));\n            require(token.transfer(destination, amount));\n        }\n\n        WithdrawFunds(token, amount, destination);\n\n        return true;\n    }\n\n    event SetContractAddresses(address network, address rate, address sanity);\n\n    function setContracts(\n        address _kyberNetwork,\n        ConversionRatesInterface _conversionRates,\n        SanityRatesInterface _sanityRates\n    )\n        public\n        onlyAdmin\n    {\n        require(_kyberNetwork != address(0));\n        require(_conversionRates != address(0));\n\n        kyberNetwork = _kyberNetwork;\n        conversionRatesContract = _conversionRates;\n        sanityRatesContract = _sanityRates;\n\n        SetContractAddresses(kyberNetwork, conversionRatesContract, sanityRatesContract);\n    }\n\n    ////////////////////////////////////////////////////////////////////////////\n    /// status functions ///////////////////////////////////////////////////////\n    ////////////////////////////////////////////////////////////////////////////\n    function getBalance(ERC20 token) public view returns(uint) {\n        return fetchBalance(token);\n    }\n\n    function fetchBalance(ERC20 token) public view returns(uint) {\n        return fundWalletContract.checkBalance(token);\n    }\n\n    function getDestQty(ERC20 src, ERC20 dest, uint srcQty, uint rate) public view returns(uint) {\n        uint dstDecimals = getDecimals(dest);\n        uint srcDecimals = getDecimals(src);\n\n        return calcDstQty(srcQty, srcDecimals, dstDecimals, rate);\n    }\n\n    function getSrcQty(ERC20 src, ERC20 dest, uint dstQty, uint rate) public view returns(uint) {\n        uint dstDecimals = getDecimals(dest);\n        uint srcDecimals = getDecimals(src);\n\n        return calcSrcQty(dstQty, srcDecimals, dstDecimals, rate);\n    }\n\n    function getConversionRate(ERC20 src, ERC20 dest, uint srcQty, uint blockNumber) public view returns(uint) {\n        ERC20 token;\n        bool  isBuy;\n\n        if (!tradeEnabled) return 0;\n\n        if (ETH_TOKEN_ADDRESS == src) {\n            isBuy = true;\n            token = dest;\n        } else if (ETH_TOKEN_ADDRESS == dest) {\n            isBuy = false;\n            token = src;\n        } else {\n            return 0; // pair is not listed\n        }\n\n        uint rate = conversionRatesContract.getRate(token, blockNumber, isBuy, srcQty);\n        uint destQty = getDestQty(src, dest, srcQty, rate);\n\n        if (getBalance(dest) < destQty) return 0;\n\n        if (sanityRatesContract != address(0)) {\n            uint sanityRate = sanityRatesContract.getSanityRate(src, dest);\n            if (rate > sanityRate) return 0;\n        }\n\n        return rate;\n    }\n\n    /// @dev do a trade\n    /// @param srcToken Src token\n    /// @param srcAmount Amount of src token\n    /// @param destToken Destination token\n    /// @param destAddress Destination address to send tokens to\n    /// @param validate If true, additional validations are applicable\n    /// @return true iff trade is successful\n    function doTrade(\n        ERC20 srcToken,\n        uint srcAmount,\n        ERC20 destToken,\n        address destAddress,\n        uint conversionRate,\n        bool validate\n    )\n        internal\n        returns(bool)\n    {\n        // can skip validation if done at kyber network level\n        if (validate) {\n            require(conversionRate > 0);\n            if (srcToken == ETH_TOKEN_ADDRESS)\n                require(msg.value == srcAmount);\n            else\n                require(msg.value == 0);\n        }\n\n        uint destAmount = getDestQty(srcToken, destToken, srcAmount, conversionRate);\n        // sanity check\n        require(destAmount > 0);\n\n        // add to imbalance\n        ERC20 token;\n        int tradeAmount;\n        if (srcToken == ETH_TOKEN_ADDRESS) {\n            tradeAmount = int(destAmount);\n            token = destToken;\n        } else {\n            tradeAmount = -1 * int(srcAmount);\n            token = srcToken;\n        }\n\n        conversionRatesContract.recordImbalance(\n            token,\n            tradeAmount,\n            0,\n            block.number\n        );\n\n        /*Trade not working - have a seperate function in reserve which is required by doTrade this seperate\n        function should collect and send tokens/eth between the reserve and fund - and there should be a success bool*/\n\n        // collect src tokens (if eth forward to fund Wallet)\n        if (srcToken == ETH_TOKEN_ADDRESS) {\n            //require push eth function\n            require(ethPusher(srcAmount));\n        } else {\n            require(srcToken.transferFrom(msg.sender, fundWalletContract, srcAmount));\n        }\n\n        // send dest tokens\n        if (destToken == ETH_TOKEN_ADDRESS) {\n          //require pull eth function then send eth to dest address;\n          require(ethPuller(destAmount));\n          destAddress.transfer(destAmount);\n        } else {\n          //require pull token function then send token to dest address;\n          require(tokenPuller(destToken, destAmount));\n          require(destToken.transfer(destAddress, destAmount));\n        }\n\n        TradeExecute(msg.sender, srcToken, srcAmount, destToken, destAmount, destAddress);\n\n        return true;\n    }\n\n    //push eth function\n    function ethPusher(uint srcAmount) internal returns(bool) {\n        fundWalletContract.transfer(srcAmount);\n        return true;\n    }\n\n    //pull eth functions\n    function ethPuller(uint destAmount) internal returns(bool) {\n        require(fundWalletContract.pullEther(destAmount));\n        return true;\n    }\n\n    //pull token function\n    function tokenPuller(ERC20 token, uint destAmount) internal returns(bool) {\n        require(fundWalletContract.pullToken(token, destAmount));\n        return true;\n    }\n}\n",
  "sourcePath": "/home/anmol/Documents/dlp-Kyber-test-suite/contracts/KyberFundReserve.sol",
  "compiler": {
    "name": "solc",
    "version": "0.4.18+commit.9cf6e910.Emscripten.clang"
  },
  "schemaVersion": "3.0.0-beta.1",
  "updatedAt": "2019-03-03T04:25:00.601Z"
}