{
  "contractName": "MockFundWallet",
  "abi": [
    {
      "constant": true,
      "inputs": [],
      "name": "reserve",
      "outputs": [
        {
          "name": "",
          "type": "address"
        }
      ],
      "payable": false,
      "stateMutability": "view",
      "type": "function"
    },
    {
      "inputs": [
        {
          "name": "_adminP",
          "type": "uint256"
        },
        {
          "name": "_raiseP",
          "type": "uint256"
        },
        {
          "name": "_opperateP",
          "type": "uint256"
        },
        {
          "name": "_liquidP",
          "type": "uint256"
        }
      ],
      "payable": false,
      "stateMutability": "nonpayable",
      "type": "constructor"
    },
    {
      "payable": true,
      "stateMutability": "payable",
      "type": "fallback"
    },
    {
      "anonymous": false,
      "inputs": [
        {
          "indexed": false,
          "name": "token",
          "type": "address"
        },
        {
          "indexed": false,
          "name": "amount",
          "type": "uint256"
        },
        {
          "indexed": false,
          "name": "sendTo",
          "type": "address"
        }
      ],
      "name": "TokenPulled",
      "type": "event"
    },
    {
      "anonymous": false,
      "inputs": [
        {
          "indexed": false,
          "name": "amount",
          "type": "uint256"
        },
        {
          "indexed": false,
          "name": "sendTo",
          "type": "address"
        }
      ],
      "name": "EtherPulled",
      "type": "event"
    },
    {
      "constant": false,
      "inputs": [
        {
          "name": "_reserve",
          "type": "address"
        }
      ],
      "name": "setReserve",
      "outputs": [],
      "payable": false,
      "stateMutability": "nonpayable",
      "type": "function"
    },
    {
      "constant": false,
      "inputs": [
        {
          "name": "token",
          "type": "address"
        },
        {
          "name": "amount",
          "type": "uint256"
        }
      ],
      "name": "pullToken",
      "outputs": [
        {
          "name": "",
          "type": "bool"
        }
      ],
      "payable": false,
      "stateMutability": "nonpayable",
      "type": "function"
    },
    {
      "constant": false,
      "inputs": [
        {
          "name": "amount",
          "type": "uint256"
        }
      ],
      "name": "pullEther",
      "outputs": [
        {
          "name": "",
          "type": "bool"
        }
      ],
      "payable": false,
      "stateMutability": "nonpayable",
      "type": "function"
    },
    {
      "constant": true,
      "inputs": [
        {
          "name": "token",
          "type": "address"
        }
      ],
      "name": "checkBalance",
      "outputs": [
        {
          "name": "",
          "type": "uint256"
        }
      ],
      "payable": false,
      "stateMutability": "view",
      "type": "function"
    }
  ],
  "bytecode": "0x6060604052341561000f57600080fd5b6040516080806105538339810160405280805191906020018051919060200180519190602001805142600055603c95860260015593850260025550508202600355026004556104f0806100636000396000f3006060604052600436106100535763ffffffff60e060020a6000350416635306e4b381146100555780635f5152261461008b5780639cecc80a146100bc578063c783dc9e146100db578063cd3293de146100f1575b005b341561006057600080fd5b610077600160a060020a0360043516602435610120565b604051901515815260200160405180910390f35b341561009657600080fd5b6100aa600160a060020a0360043516610267565b60405190815260200160405180910390f35b34156100c757600080fd5b610053600160a060020a03600435166103ac565b34156100e657600080fd5b6100776004356103db565b34156100fc57600080fd5b6101046104b5565b604051600160a060020a03909116815260200160405180910390f35b60055460009033600160a060020a0390811691161461013e57600080fd5b60045460035460025460015460005401010101421080156101685750600254600154600054010142115b151561017357600080fd5b600554600160a060020a038085169163a9059cbb91168460006040516020015260405160e060020a63ffffffff8516028152600160a060020a0390921660048301526024820152604401602060405180830381600087803b15156101d657600080fd5b6102c65a03f115156101e757600080fd5b5050506040518051905015156101fc57600080fd5b6005547f0dae1d2fece5eab94077f004eabf3ffaebaa2df0a1531e5e25541a2a52398c719084908490600160a060020a0316604051600160a060020a03938416815260208101929092529091166040808301919091526060909101905180910390a150600192915050565b60006003546002546001546000540101014210801561028f5750600254600154600054010142115b1561034357600160a060020a03821673eeeeeeeeeeeeeeeeeeeeeeeeeeeeeeeeeeeeeeee14156102ca5750600160a060020a033016316103a7565b81600160a060020a03166370a082313060006040516020015260405160e060020a63ffffffff8416028152600160a060020a039091166004820152602401602060405180830381600087803b151561032157600080fd5b6102c65a03f1151561033257600080fd5b5050506040518051905090506103a7565b6004546003546002546001546000540101010142108015610371575060035460025460015460005401010142115b156103a357600160a060020a03821673eeeeeeeeeeeeeeeeeeeeeeeeeeeeeeeeeeeeeeee14156102ca575060006103a7565b5060005b919050565b6005805473ffffffffffffffffffffffffffffffffffffffff1916600160a060020a0392909216919091179055565b60055460009033600160a060020a039081169116146103f957600080fd5b6003546002546001546000540101014210801561041f5750600254600154600054010142115b151561042a57600080fd5b600554600160a060020a031682156108fc0283604051600060405180830381858888f19350505050151561045d57600080fd5b6005547f6407afe5c1169d6eda8d2aaf78533c06841f2d71699109e7ccbfdaa4d9a0b574908390600160a060020a0316604051918252600160a060020a031660208201526040908101905180910390a1506001919050565b600554600160a060020a0316815600a165627a7a7230582073a22c901cb2eee08b5a4328a9d6719dcdc94b8b0ea20aece9bb0d5c334e6a030029",
  "source": "pragma solidity 0.4.18;\n//mock fund wallet for testing\n\nimport \"../ERC20Interface.sol\";\n\ncontract MockFundWallet {\n    //experimental time periods\n    uint start;\n    uint adminP;\n    uint raiseP;\n    uint opperateP;\n    uint liquidP;\n\n    //Kyber Reserve contract address\n    address public reserve;\n\n    //eth address\n    ERC20 constant internal ETH_TOKEN_ADDRESS = ERC20(0x00eeeeeeeeeeeeeeeeeeeeeeeeeeeeeeeeeeeeeeee);\n\n    //events\n    event TokenPulled(ERC20 token, uint amount, address sendTo);\n    event EtherPulled(uint amount, address sendTo);\n\n    /// @notice Constructor, initialises admin wallets.\n    function MockFundWallet(uint _adminP, uint _raiseP, uint _opperateP, uint _liquidP) public {\n        start = now;\n        adminP = _adminP * (60 seconds);\n        raiseP = _raiseP * (60 seconds);\n        opperateP = _opperateP * (60 seconds);\n        liquidP = _liquidP * (60 seconds);\n    }\n\n    function setReserve(address _reserve) public {\n        reserve = _reserve;\n    }\n\n    function() public payable {\n    }\n\n    //functions to allow trading with reserve address\n\n    /// @dev send erc20token to the reserve address\n    /// @param token ERC20 The address of the token contract\n    function pullToken(ERC20 token, uint amount) external returns (bool){\n        require(msg.sender == reserve);\n        require(now < (start + adminP + raiseP + opperateP + liquidP) && now > (start + adminP + raiseP));\n        require(token.transfer(reserve, amount));\n        TokenPulled(token, amount, reserve);\n        return true;\n    }\n\n    ///@dev Send ether to the reserve address\n    function pullEther(uint amount) external returns (bool){\n        require(msg.sender == reserve);\n        require(now < (start + adminP + raiseP + opperateP) && now > (start + adminP + raiseP));\n        reserve.transfer(amount);\n        EtherPulled(amount, reserve);\n        return true;\n    }\n\n    ///@dev function to check balance only returns balances in opperating and liquidating periods\n    function checkBalance(ERC20 token) public view returns (uint) {\n        if (now < (start + adminP +raiseP + opperateP) && now > (start + adminP + raiseP)) {\n            if (token == ETH_TOKEN_ADDRESS) {\n                return this.balance;\n            }\n            else {\n                return token.balanceOf(this);\n            }\n        }\n        if (now < (start + adminP + raiseP + opperateP + liquidP) && now > (start + adminP + raiseP + opperateP)) {\n            if (token == ETH_TOKEN_ADDRESS) {\n                return 0;\n            }\n            else {\n                return token.balanceOf(this);\n            }\n        }\n        else return 0;\n    }\n}\n",
  "sourcePath": "/home/anmol/Documents/dlp-Kyber-test-suite/contracts/mockContracts/MockFundWallet.sol",
  "compiler": {
    "name": "solc",
    "version": "0.4.18+commit.9cf6e910.Emscripten.clang"
  },
  "schemaVersion": "3.0.0-beta.1",
  "updatedAt": "2019-03-03T04:25:00.616Z"
}