{
  "contractName": "PermissionGroups",
  "abi": [
    {
      "constant": true,
      "inputs": [],
      "name": "pendingAdmin",
      "outputs": [
        {
          "name": "",
          "type": "address"
        }
      ],
      "payable": false,
      "stateMutability": "view",
      "type": "function"
    },
    {
      "constant": true,
      "inputs": [],
      "name": "admin",
      "outputs": [
        {
          "name": "",
          "type": "address"
        }
      ],
      "payable": false,
      "stateMutability": "view",
      "type": "function"
    },
    {
      "inputs": [],
      "payable": false,
      "stateMutability": "nonpayable",
      "type": "constructor"
    },
    {
      "anonymous": false,
      "inputs": [
        {
          "indexed": false,
          "name": "pendingAdmin",
          "type": "address"
        }
      ],
      "name": "TransferAdminPending",
      "type": "event"
    },
    {
      "anonymous": false,
      "inputs": [
        {
          "indexed": false,
          "name": "newAdmin",
          "type": "address"
        },
        {
          "indexed": false,
          "name": "previousAdmin",
          "type": "address"
        }
      ],
      "name": "AdminClaimed",
      "type": "event"
    },
    {
      "anonymous": false,
      "inputs": [
        {
          "indexed": false,
          "name": "newAlerter",
          "type": "address"
        },
        {
          "indexed": false,
          "name": "isAdd",
          "type": "bool"
        }
      ],
      "name": "AlerterAdded",
      "type": "event"
    },
    {
      "anonymous": false,
      "inputs": [
        {
          "indexed": false,
          "name": "newOperator",
          "type": "address"
        },
        {
          "indexed": false,
          "name": "isAdd",
          "type": "bool"
        }
      ],
      "name": "OperatorAdded",
      "type": "event"
    },
    {
      "constant": true,
      "inputs": [],
      "name": "getOperators",
      "outputs": [
        {
          "name": "",
          "type": "address[]"
        }
      ],
      "payable": false,
      "stateMutability": "view",
      "type": "function"
    },
    {
      "constant": true,
      "inputs": [],
      "name": "getAlerters",
      "outputs": [
        {
          "name": "",
          "type": "address[]"
        }
      ],
      "payable": false,
      "stateMutability": "view",
      "type": "function"
    },
    {
      "constant": false,
      "inputs": [
        {
          "name": "newAdmin",
          "type": "address"
        }
      ],
      "name": "transferAdmin",
      "outputs": [],
      "payable": false,
      "stateMutability": "nonpayable",
      "type": "function"
    },
    {
      "constant": false,
      "inputs": [
        {
          "name": "newAdmin",
          "type": "address"
        }
      ],
      "name": "transferAdminQuickly",
      "outputs": [],
      "payable": false,
      "stateMutability": "nonpayable",
      "type": "function"
    },
    {
      "constant": false,
      "inputs": [],
      "name": "claimAdmin",
      "outputs": [],
      "payable": false,
      "stateMutability": "nonpayable",
      "type": "function"
    },
    {
      "constant": false,
      "inputs": [
        {
          "name": "newAlerter",
          "type": "address"
        }
      ],
      "name": "addAlerter",
      "outputs": [],
      "payable": false,
      "stateMutability": "nonpayable",
      "type": "function"
    },
    {
      "constant": false,
      "inputs": [
        {
          "name": "alerter",
          "type": "address"
        }
      ],
      "name": "removeAlerter",
      "outputs": [],
      "payable": false,
      "stateMutability": "nonpayable",
      "type": "function"
    },
    {
      "constant": false,
      "inputs": [
        {
          "name": "newOperator",
          "type": "address"
        }
      ],
      "name": "addOperator",
      "outputs": [],
      "payable": false,
      "stateMutability": "nonpayable",
      "type": "function"
    },
    {
      "constant": false,
      "inputs": [
        {
          "name": "operator",
          "type": "address"
        }
      ],
      "name": "removeOperator",
      "outputs": [],
      "payable": false,
      "stateMutability": "nonpayable",
      "type": "function"
    }
  ],
  "bytecode": "0x6060604052341561000f57600080fd5b60008054600160a060020a033316600160a060020a0319909116179055610a6e8061003b6000396000f3006060604052600436106100ae5763ffffffff7c010000000000000000000000000000000000000000000000000000000060003504166301a12fd381146100b357806326782247146100d457806327a099d814610103578063408ee7fe1461016957806375829def1461018857806377f50f97146101a75780637acc8678146101ba5780637c423f54146101d95780639870d7fe146101ec578063ac8a584a1461020b578063f851a4401461022a575b600080fd5b34156100be57600080fd5b6100d2600160a060020a036004351661023d565b005b34156100df57600080fd5b6100e76103ad565b604051600160a060020a03909116815260200160405180910390f35b341561010e57600080fd5b6101166103bc565b60405160208082528190810183818151815260200191508051906020019060200280838360005b8381101561015557808201518382015260200161013d565b505050509050019250505060405180910390f35b341561017457600080fd5b6100d2600160a060020a0360043516610425565b341561019357600080fd5b6100d2600160a060020a0360043516610521565b34156101b257600080fd5b6100d26105bc565b34156101c557600080fd5b6100d2600160a060020a0360043516610656565b34156101e457600080fd5b610116610738565b34156101f757600080fd5b6100d2600160a060020a036004351661079e565b341561021657600080fd5b6100d2600160a060020a036004351661086e565b341561023557600080fd5b6100e76109da565b6000805433600160a060020a0390811691161461025957600080fd5b600160a060020a03821660009081526003602052604090205460ff16151561028057600080fd5b50600160a060020a0381166000908152600360205260408120805460ff191690555b6005548110156103a95781600160a060020a03166005828154811015156102c557fe5b600091825260209091200154600160a060020a031614156103a1576005805460001981019081106102f257fe5b60009182526020909120015460058054600160a060020a03909216918390811061031857fe5b60009182526020909120018054600160a060020a031916600160a060020a039290921691909117905560058054906103549060001983016109e9565b507f5611bf3e417d124f97bf2c788843ea8bb502b66079fbee02158ef30b172cb762826000604051600160a060020a039092168252151560208201526040908101905180910390a16103a9565b6001016102a2565b5050565b600154600160a060020a031681565b6103c4610a12565b600480548060200260200160405190810160405280929190818152602001828054801561041a57602002820191906000526020600020905b8154600160a060020a031681526001909101906020018083116103fc575b505050505090505b90565b60005433600160a060020a0390811691161461044057600080fd5b600160a060020a03811660009081526003602052604090205460ff161561046657600080fd5b6005546032901061047657600080fd5b7f5611bf3e417d124f97bf2c788843ea8bb502b66079fbee02158ef30b172cb762816001604051600160a060020a039092168252151560208201526040908101905180910390a1600160a060020a0381166000908152600360205260409020805460ff1916600190811790915560058054909181016104f583826109e9565b5060009182526020909120018054600160a060020a031916600160a060020a0392909216919091179055565b60005433600160a060020a0390811691161461053c57600080fd5b600160a060020a038116151561055157600080fd5b6001547f3b81caf78fa51ecbc8acb482fd7012a277b428d9b80f9d156e8a54107496cc4090600160a060020a0316604051600160a060020a03909116815260200160405180910390a160018054600160a060020a031916600160a060020a0392909216919091179055565b60015433600160a060020a039081169116146105d757600080fd5b6001546000547f65da1cfc2c2e81576ad96afb24a581f8e109b7a403b35cbd3243a1c99efdb9ed91600160a060020a039081169116604051600160a060020a039283168152911660208201526040908101905180910390a16001805460008054600160a060020a0319908116600160a060020a03841617909155169055565b60005433600160a060020a0390811691161461067157600080fd5b600160a060020a038116151561068657600080fd5b7f3b81caf78fa51ecbc8acb482fd7012a277b428d9b80f9d156e8a54107496cc4081604051600160a060020a03909116815260200160405180910390a16000547f65da1cfc2c2e81576ad96afb24a581f8e109b7a403b35cbd3243a1c99efdb9ed908290600160a060020a0316604051600160a060020a039283168152911660208201526040908101905180910390a160008054600160a060020a031916600160a060020a0392909216919091179055565b610740610a12565b600580548060200260200160405190810160405280929190818152602001828054801561041a57602002820191906000526020600020908154600160a060020a031681526001909101906020018083116103fc575050505050905090565b60005433600160a060020a039081169116146107b957600080fd5b600160a060020a03811660009081526002602052604090205460ff16156107df57600080fd5b600454603290106107ef57600080fd5b7f091a7a4b85135fdd7e8dbc18b12fabe5cc191ea867aa3c2e1a24a102af61d58b816001604051600160a060020a039092168252151560208201526040908101905180910390a1600160a060020a0381166000908152600260205260409020805460ff1916600190811790915560048054909181016104f583826109e9565b6000805433600160a060020a0390811691161461088a57600080fd5b600160a060020a03821660009081526002602052604090205460ff1615156108b157600080fd5b50600160a060020a0381166000908152600260205260408120805460ff191690555b6004548110156103a95781600160a060020a03166004828154811015156108f657fe5b600091825260209091200154600160a060020a031614156109d25760048054600019810190811061092357fe5b60009182526020909120015460048054600160a060020a03909216918390811061094957fe5b60009182526020909120018054600160a060020a031916600160a060020a039290921691909117905560048054600019019061098590826109e9565b507f091a7a4b85135fdd7e8dbc18b12fabe5cc191ea867aa3c2e1a24a102af61d58b826000604051600160a060020a039092168252151560208201526040908101905180910390a16103a9565b6001016108d3565b600054600160a060020a031681565b815481835581811511610a0d57600083815260209020610a0d918101908301610a24565b505050565b60206040519081016040526000815290565b61042291905b80821115610a3e5760008155600101610a2a565b50905600a165627a7a72305820513165bed7567f884348fc1942f0eacb38a6944b402b646929876e6a0e5725500029",
  "source": "pragma solidity 0.4.18;\n\n\ncontract PermissionGroups {\n\n    address public admin;\n    address public pendingAdmin;\n    mapping(address=>bool) internal operators;\n    mapping(address=>bool) internal alerters;\n    address[] internal operatorsGroup;\n    address[] internal alertersGroup;\n    uint constant internal MAX_GROUP_SIZE = 50;\n\n    function PermissionGroups() public {\n        admin = msg.sender;\n    }\n\n    modifier onlyAdmin() {\n        require(msg.sender == admin);\n        _;\n    }\n\n    modifier onlyOperator() {\n        require(operators[msg.sender]);\n        _;\n    }\n\n    modifier onlyAlerter() {\n        require(alerters[msg.sender]);\n        _;\n    }\n\n    function getOperators () external view returns(address[]) {\n        return operatorsGroup;\n    }\n\n    function getAlerters () external view returns(address[]) {\n        return alertersGroup;\n    }\n\n    event TransferAdminPending(address pendingAdmin);\n\n    /**\n     * @dev Allows the current admin to set the pendingAdmin address.\n     * @param newAdmin The address to transfer ownership to.\n     */\n    function transferAdmin(address newAdmin) public onlyAdmin {\n        require(newAdmin != address(0));\n        TransferAdminPending(pendingAdmin);\n        pendingAdmin = newAdmin;\n    }\n\n    /**\n     * @dev Allows the current admin to set the admin in one tx. Useful initial deployment.\n     * @param newAdmin The address to transfer ownership to.\n     */\n    function transferAdminQuickly(address newAdmin) public onlyAdmin {\n        require(newAdmin != address(0));\n        TransferAdminPending(newAdmin);\n        AdminClaimed(newAdmin, admin);\n        admin = newAdmin;\n    }\n\n    event AdminClaimed( address newAdmin, address previousAdmin);\n\n    /**\n     * @dev Allows the pendingAdmin address to finalize the change admin process.\n     */\n    function claimAdmin() public {\n        require(pendingAdmin == msg.sender);\n        AdminClaimed(pendingAdmin, admin);\n        admin = pendingAdmin;\n        pendingAdmin = address(0);\n    }\n\n    event AlerterAdded (address newAlerter, bool isAdd);\n\n    function addAlerter(address newAlerter) public onlyAdmin {\n        require(!alerters[newAlerter]); // prevent duplicates.\n        require(alertersGroup.length < MAX_GROUP_SIZE);\n\n        AlerterAdded(newAlerter, true);\n        alerters[newAlerter] = true;\n        alertersGroup.push(newAlerter);\n    }\n\n    function removeAlerter (address alerter) public onlyAdmin {\n        require(alerters[alerter]);\n        alerters[alerter] = false;\n\n        for (uint i = 0; i < alertersGroup.length; ++i) {\n            if (alertersGroup[i] == alerter) {\n                alertersGroup[i] = alertersGroup[alertersGroup.length - 1];\n                alertersGroup.length--;\n                AlerterAdded(alerter, false);\n                break;\n            }\n        }\n    }\n\n    event OperatorAdded(address newOperator, bool isAdd);\n\n    function addOperator(address newOperator) public onlyAdmin {\n        require(!operators[newOperator]); // prevent duplicates.\n        require(operatorsGroup.length < MAX_GROUP_SIZE);\n\n        OperatorAdded(newOperator, true);\n        operators[newOperator] = true;\n        operatorsGroup.push(newOperator);\n    }\n\n    function removeOperator (address operator) public onlyAdmin {\n        require(operators[operator]);\n        operators[operator] = false;\n\n        for (uint i = 0; i < operatorsGroup.length; ++i) {\n            if (operatorsGroup[i] == operator) {\n                operatorsGroup[i] = operatorsGroup[operatorsGroup.length - 1];\n                operatorsGroup.length -= 1;\n                OperatorAdded(operator, false);\n                break;\n            }\n        }\n    }\n}\n",
  "sourcePath": "/home/anmol/Documents/dlp-Kyber-test-suite/contracts/PermissionGroups.sol",
  "compiler": {
    "name": "solc",
    "version": "0.4.18+commit.9cf6e910.Emscripten.clang"
  },
  "schemaVersion": "3.0.0-beta.1",
  "updatedAt": "2019-03-03T04:25:00.605Z"
}