{
  "contractName": "Utils2",
  "abi": [
    {
      "constant": true,
      "inputs": [
        {
          "name": "token",
          "type": "address"
        },
        {
          "name": "user",
          "type": "address"
        }
      ],
      "name": "getBalance",
      "outputs": [
        {
          "name": "",
          "type": "uint256"
        }
      ],
      "payable": false,
      "stateMutability": "view",
      "type": "function"
    }
  ],
  "bytecode": "0x6060604052341561000f57600080fd5b6101b48061001e6000396000f3006060604052600436106100405763ffffffff7c0100000000000000000000000000000000000000000000000000000000600035041663d4fac45d8114610045575b600080fd5b341561005057600080fd5b61007773ffffffffffffffffffffffffffffffffffffffff60043581169060243516610089565b60405190815260200160405180910390f35b600073ffffffffffffffffffffffffffffffffffffffff831673eeeeeeeeeeeeeeeeeeeeeeeeeeeeeeeeeeeeeeee14156100db575073ffffffffffffffffffffffffffffffffffffffff811631610182565b8273ffffffffffffffffffffffffffffffffffffffff166370a08231836000604051602001526040517c010000000000000000000000000000000000000000000000000000000063ffffffff841602815273ffffffffffffffffffffffffffffffffffffffff9091166004820152602401602060405180830381600087803b151561016557600080fd5b6102c65a03f1151561017657600080fd5b50505060405180519150505b929150505600a165627a7a72305820ecf22c872d38c91ed8041160df614be88e74d5b479c31204b679882b9f9f8e6c0029",
  "source": "pragma solidity 0.4.18;\n\n\nimport \"./Utils.sol\";\n\n\ncontract Utils2 is Utils {\n\n    /// @dev get the balance of a user.\n    /// @param token The token type\n    /// @return The balance\n    function getBalance(ERC20 token, address user) public view returns(uint) {\n        if (token == ETH_TOKEN_ADDRESS)\n            return user.balance;\n        else\n            return token.balanceOf(user);\n    }\n\n    function getDecimalsSafe(ERC20 token) internal returns(uint) {\n\n        if (decimals[token] == 0) {\n            setDecimals(token);\n        }\n\n        return decimals[token];\n    }\n\n    function calcDestAmount(ERC20 src, ERC20 dest, uint srcAmount, uint rate) internal view returns(uint) {\n        return calcDstQty(srcAmount, getDecimals(src), getDecimals(dest), rate);\n    }\n\n    function calcSrcAmount(ERC20 src, ERC20 dest, uint destAmount, uint rate) internal view returns(uint) {\n        return calcSrcQty(destAmount, getDecimals(src), getDecimals(dest), rate);\n    }\n\n    function calcRateFromQty(uint srcAmount, uint destAmount, uint srcDecimals, uint dstDecimals)\n        internal pure returns(uint)\n    {\n        require(srcAmount <= MAX_QTY);\n        require(destAmount <= MAX_QTY);\n\n        if (dstDecimals >= srcDecimals) {\n            require((dstDecimals - srcDecimals) <= MAX_DECIMALS);\n            return (destAmount * PRECISION / ((10 ** (dstDecimals - srcDecimals)) * srcAmount));\n        } else {\n            require((srcDecimals - dstDecimals) <= MAX_DECIMALS);\n            return (destAmount * PRECISION * (10 ** (srcDecimals - dstDecimals)) / srcAmount);\n        }\n    }\n}\n",
  "sourcePath": "/home/anmol/Documents/dlp-Kyber-test-suite/contracts/Utils2.sol",
  "compiler": {
    "name": "solc",
    "version": "0.4.18+commit.9cf6e910.Emscripten.clang"
  },
  "schemaVersion": "3.0.0-beta.1",
  "updatedAt": "2019-03-03T04:25:00.609Z"
}